{"contracts/PredictionAgent.sol":{"PredictionAgent":{"abi":[{"inputs":[{"internalType":"address","name":"_agent","type":"address"}],"stateMutability":"nonpayable","type":"constructor"},{"anonymous":false,"inputs":[{"indexed":true,"internalType":"uint256","name":"betId","type":"uint256"},{"indexed":true,"internalType":"address","name":"user","type":"address"},{"indexed":false,"internalType":"uint256","name":"refundUsdc","type":"uint256"}],"name":"BetCancelled","type":"event"},{"anonymous":false,"inputs":[{"indexed":true,"internalType":"uint256","name":"betId","type":"uint256"},{"indexed":true,"internalType":"address","name":"user","type":"address"},{"indexed":false,"internalType":"string","name":"asset","type":"string"},{"indexed":false,"internalType":"uint256","name":"amountUsdc","type":"uint256"},{"indexed":false,"internalType":"bytes32","name":"conditionId","type":"bytes32"},{"indexed":false,"internalType":"uint256","name":"queueIndex","type":"uint256"},{"indexed":false,"internalType":"uint256","name":"queueTotal","type":"uint256"}],"name":"BetPlaced","type":"event"},{"anonymous":false,"inputs":[{"indexed":true,"internalType":"uint256","name":"betId","type":"uint256"},{"indexed":true,"internalType":"address","name":"user","type":"address"},{"indexed":false,"internalType":"enum PredictionAgent.BetStatus","name":"result","type":"uint8"},{"indexed":false,"internalType":"uint256","name":"payoutUsdc","type":"uint256"}],"name":"BetSettled","type":"event"},{"inputs":[],"name":"USDC","outputs":[{"internalType":"address","name":"","type":"address"}],"stateMutability":"view","type":"function"},{"inputs":[],"name":"agent","outputs":[{"internalType":"address","name":"","type":"address"}],"stateMutability":"view","type":"function"},{"inputs":[{"internalType":"uint256","name":"","type":"uint256"}],"name":"bets","outputs":[{"internalType":"uint256","name":"id","type":"uint256"},{"internalType":"address","name":"user","type":"address"},{"internalType":"string","name":"asset","type":"string"},{"internalType":"string","name":"condition","type":"string"},{"internalType":"uint256","name":"conditionValue","type":"uint256"},{"internalType":"string","name":"outcome","type":"string"},{"internalType":"uint256","name":"timeframeSeconds","type":"uint256"},{"internalType":"uint256","name":"amountUsdc","type":"uint256"},{"internalType":"uint256","name":"createdAt","type":"uint256"},{"internalType":"uint256","name":"expiresAt","type":"uint256"},{"internalType":"enum PredictionAgent.BetStatus","name":"status","type":"uint8"},{"internalType":"uint256","name":"payoutUsdc","type":"uint256"},{"internalType":"uint256","name":"queueIndex","type":"uint256"},{"internalType":"uint256","name":"queueTotal","type":"uint256"},{"internalType":"bytes32","name":"conditionId","type":"bytes32"}],"stateMutability":"view","type":"function"},{"inputs":[{"internalType":"uint256","name":"_betId","type":"uint256"}],"name":"cancelBet","outputs":[],"stateMutability":"nonpayable","type":"function"},{"inputs":[{"internalType":"bytes32","name":"","type":"bytes32"},{"internalType":"uint256","name":"","type":"uint256"}],"name":"conditionBetIds","outputs":[{"internalType":"uint256","name":"","type":"uint256"}],"stateMutability":"view","type":"function"},{"inputs":[],"name":"contractBalance","outputs":[{"internalType":"uint256","name":"","type":"uint256"}],"stateMutability":"view","type":"function"},{"inputs":[{"internalType":"uint256","name":"_betId","type":"uint256"}],"name":"getBet","outputs":[{"components":[{"internalType":"uint256","name":"id","type":"uint256"},{"internalType":"address","name":"user","type":"address"},{"internalType":"string","name":"asset","type":"string"},{"internalType":"string","name":"condition","type":"string"},{"internalType":"uint256","name":"conditionValue","type":"uint256"},{"internalType":"string","name":"outcome","type":"string"},{"internalType":"uint256","name":"timeframeSeconds","type":"uint256"},{"internalType":"uint256","name":"amountUsdc","type":"uint256"},{"internalType":"uint256","name":"createdAt","type":"uint256"},{"internalType":"uint256","name":"expiresAt","type":"uint256"},{"internalType":"enum PredictionAgent.BetStatus","name":"status","type":"uint8"},{"internalType":"uint256","name":"payoutUsdc","type":"uint256"},{"internalType":"uint256","name":"queueIndex","type":"uint256"},{"internalType":"uint256","name":"queueTotal","type":"uint256"},{"internalType":"bytes32","name":"conditionId","type":"bytes32"}],"internalType":"struct PredictionAgent.Bet","name":"","type":"tuple"}],"stateMutability":"view","type":"function"},{"inputs":[{"internalType":"bytes32","name":"_conditionId","type":"bytes32"}],"name":"getConditionBets","outputs":[{"internalType":"uint256[]","name":"","type":"uint256[]"}],"stateMutability":"view","type":"function"},{"inputs":[{"internalType":"address","name":"_user","type":"address"}],"name":"getUserBets","outputs":[{"internalType":"uint256[]","name":"","type":"uint256[]"}],"stateMutability":"view","type":"function"},{"inputs":[],"name":"houseBalance","outputs":[{"internalType":"uint256","name":"","type":"uint256"}],"stateMutability":"view","type":"function"},{"inputs":[],"name":"houseFee","outputs":[{"internalType":"uint256","name":"","type":"uint256"}],"stateMutability":"view","type":"function"},{"inputs":[],"name":"nextBetId","outputs":[{"internalType":"uint256","name":"","type":"uint256"}],"stateMutability":"view","type":"function"},{"inputs":[],"name":"owner","outputs":[{"internalType":"address","name":"","type":"address"}],"stateMutability":"view","type":"function"},{"inputs":[],"name":"payoutMultiplier","outputs":[{"internalType":"uint256","name":"","type":"uint256"}],"stateMutability":"view","type":"function"},{"inputs":[{"internalType":"address","name":"_user","type":"address"},{"internalType":"string","name":"_asset","type":"string"},{"internalType":"string","name":"_condition","type":"string"},{"internalType":"uint256","name":"_conditionValue","type":"uint256"},{"internalType":"string","name":"_outcome","type":"string"},{"internalType":"uint256","name":"_timeframeSeconds","type":"uint256"},{"internalType":"uint256","name":"_amountUsdc","type":"uint256"},{"internalType":"uint256","name":"_queueIndex","type":"uint256"},{"internalType":"uint256","name":"_queueTotal","type":"uint256"},{"internalType":"bytes32","name":"_conditionId","type":"bytes32"}],"name":"placeBet","outputs":[{"internalType":"uint256","name":"","type":"uint256"}],"stateMutability":"nonpayable","type":"function"},{"inputs":[{"internalType":"address","name":"_agent","type":"address"}],"name":"setAgent","outputs":[],"stateMutability":"nonpayable","type":"function"},{"inputs":[{"internalType":"uint256","name":"_betId","type":"uint256"},{"internalType":"bool","name":"_won","type":"bool"}],"name":"settleBet","outputs":[],"stateMutability":"nonpayable","type":"function"},{"inputs":[],"name":"totalVolume","outputs":[{"internalType":"uint256","name":"","type":"uint256"}],"stateMutability":"view","type":"function"},{"inputs":[{"internalType":"address","name":"","type":"address"},{"internalType":"uint256","name":"","type":"uint256"}],"name":"userBetIds","outputs":[{"internalType":"uint256","name":"","type":"uint256"}],"stateMutability":"view","type":"function"},{"inputs":[{"internalType":"address","name":"_to","type":"address"},{"internalType":"uint256","name":"_amount","type":"uint256"}],"name":"withdrawHouse","outputs":[],"stateMutability":"nonpayable","type":"function"}],"evm":{"bytecode":{"linkReferences":{},"object":"60803461009857601f61197638819003918201601f19168301916001600160401b0383118484101761009d5780849260209460405283398101031261009857516001600160a01b03811690819003610098576001600255604b60035561073a60045560018060a01b0319601b60991b81600a541617600a553381600054161760005560015416176001556040516118c290816100b48239f35b600080fd5b634e487b7160e01b600052604160045260246000fdfe608080604052600436101561001357600080fd5b60003560e01c908163061e494f146112a2575080630ed469b8146112845780631d459a951461114a57806322af00fa146110295780632d56657d14610fb1578063357401f514610e4d5780635a645c9214610bf05780635c81273714610bd25780635cc9e4dc14610b885780635f81a57c14610b6a57806367084eb314610b4c578063774181c91461033657806389a30271146103165780638b7afe2e146102825780638da5cb5b146102595780639aca27921461023b578063bcf685ed146101ea578063d8638341146101a3578063e96aa52c146101295763f5ff5c76146100fb57600080fd5b34610124576000366003190112610124576001546040516001600160a01b039091168152602090f35b600080fd5b34610124576020806003193601126101245760043560005260078152604060002090604051908181845491828152019360005281600020916000905b82821061018c576101888561017c818903826115a4565b6040519182918261166c565b0390f35b835486529485019460019384019390910190610165565b3461012457604036600319011261012457602435600435600052600760205260406000208054821015610124576020916101dc916116a7565b90546040519160031b1c8152f35b3461012457602036600319011261012457610203611537565b6000546001600160a01b03919061021d9083163314611854565b166bffffffffffffffffffffffff60a01b6001541617600155600080f35b34610124576000366003190112610124576020600254604051908152f35b34610124576000366003190112610124576000546040516001600160a01b039091168152602090f35b3461012457600036600319011261012457600a546040516370a0823160e01b815230600482015290602090829060249082906001600160a01b03165afa801561030a576000906102d8575b602090604051908152f35b506020813d8211610302575b816102f1602093836115a4565b8101031261012457602090516102cd565b3d91506102e4565b6040513d6000823e3d90fd5b3461012457600036600319011261012457604051601b60991b8152602090f35b346101245761014036600319011261012457610350611537565b60243567ffffffffffffffff8111610124576103709036906004016116d5565b9060443567ffffffffffffffff8111610124576103919036906004016116d5565b9060843567ffffffffffffffff8111610124576103b29036906004016116d5565b9160018060a01b036001541633148015610b38575b6103d09061172c565b60c43515610b0157603c60a43510610ad257600160e435101580610ac3575b15610a8c57600a546040516323b872dd60e01b815233600482015230602482015260c435604482015290602090829060649082906000906001600160a01b03165af190811561030a57600091610a5d575b5015610a2157600254926000198414610a0b576001840160025561046660a4354261177c565b906040519261047484611587565b85845260018060a01b03851660208501528660408501526060840152606435608084015260a083015260a43560c083015260c43560e0830152426101008301526101208201526000610140820152600061016082015260e435610180820152610104356101a0820152610124356101c0820152826000526005602052604060002090805182556001820160018060a01b036020830151166bffffffffffffffffffffffff60a01b825416179055604081015180519067ffffffffffffffff821161085a578190610547600286015461154d565b601f81116109b8575b50602090601f831160011461094b57600092610940575b50508160011b916000199060031b1c19161760028301555b606081015180519067ffffffffffffffff821161085a5781906105a5600386015461154d565b601f81116108ed575b50602090601f831160011461087b57600092610870575b50508160011b916000199060031b1c19161760038301555b6080810151600483015560a081015180519067ffffffffffffffff821161085a57819061060d600586015461154d565b601f8111610807575b50602090601f831160011461079a5760009261078f575b50508160011b916000199060031b1c19161760058301555b60c0810151600683015560e081015160078301556101008101516008830155610120810151600983015561014081015160048110156107795760209583600e6101c07fb3e6d1a3eb0d5b102dc62f841ae965034f1229318cb7b93f4ae450f8382e3d019561074195600a8b99019060ff80198354169116179055610160810151600b850155610180810151600c8501556101a0810151600d850155015191015560018060a01b03851660005260068752610703846040600020611789565b610124356000526007875261071c846040600020611789565b61072a60c43560085461177c565b60085560405191829160a0835260a08301906114ea565b60c4358289015261012435604083015260e43560608301526101043560808301526001600160a01b03909516940390a3604051908152f35b634e487b7160e01b600052602160045260246000fd5b01519050878061062d565b600586016000908152602081209350601f198516905b8181106107ef57509084600195949392106107d6575b505050811b016005830155610645565b015160001960f88460031b161c191690558780806107c6565b929360206001819287860151815501950193016107b0565b909150600585016000526020600020601f840160051c810160208510610853575b90849392915b601f830160051c82018110610844575050610616565b6000815585945060010161082e565b5080610828565b634e487b7160e01b600052604160045260246000fd5b0151905087806105c5565b9250600385016000526020600020906000935b601f19841685106108d2576001945083601f198116106108b9575b505050811b0160038301556105dd565b015160001960f88460031b161c191690558780806108a9565b8181015183556020948501946001909301929091019061088e565b909150600385016000526020600020601f840160051c810160208510610939575b90849392915b601f830160051c8201811061092a5750506105ae565b60008155859450600101610914565b508061090e565b015190508780610567565b600286016000908152602081209350601f198516905b8181106109a05750908460019594939210610987575b505050811b01600283015561057f565b015160001960f88460031b161c19169055878080610977565b92936020600181928786015181550195019301610961565b909150600285016000526020600020601f840160051c810160208510610a04575b90849392915b601f830160051c820181106109f5575050610550565b600081558594506001016109df565b50806109d9565b634e487b7160e01b600052601160045260246000fd5b60405162461bcd60e51b81526020600482015260146024820152731554d110c81d1c985b9cd9995c8819985a5b195960621b6044820152606490fd5b610a7f915060203d602011610a85575b610a7781836115a4565b810190611764565b85610440565b503d610a6d565b60405162461bcd60e51b815260206004820152600f60248201526e084c2c840e2eacaeaca40d2dcc8caf608b1b6044820152606490fd5b506101043560e43511156103ef565b60405162461bcd60e51b81526020600482015260076024820152664d696e2036307360c81b6044820152606490fd5b60405162461bcd60e51b815260206004820152600f60248201526e105b5bdd5b9d081c995c5d5a5c9959608a1b6044820152606490fd5b506000546001600160a01b031633146103c7565b34610124576000366003190112610124576020600954604051908152f35b34610124576000366003190112610124576020600854604051908152f35b3461012457604036600319011261012457610ba1611537565b6001600160a01b0316600090815260066020526040902080546024359190821015610124576020916101dc916116a7565b34610124576000366003190112610124576020600454604051908152f35b34610124576040366003190112610124576024356004358115158203610124576001546001600160a01b0390811633148015610e40575b610c309061172c565b81600052602090600582526040600020610c4c815415156117c3565b600a81019485549060ff8216600481101561077957610c6b90156117fb565b60098301544210610e0d5715610db45750610cd06007820154610cb66103e8610cae610ca582610c9d60045487611834565b049485611847565b60035490611834565b048092611847565b96600160ff1982541617905586600b84015560095461177c565b600955600a54600191909101805460405163a9059cbb60e01b81529084166001600160a01b03166004820152602481018790529091849082908516816000816044810103925af190811561030a57600091610d97575b5015610d6257916040917f9d12e8f6cb44ec2aacb1a45887109f5e56b3f6b9209fbc36630a4c59e38cc02f9354169482519160018352820152a3005b60405162461bcd60e51b815260048101849052600d60248201526c14185e5bdd5d0819985a5b1959609a1b6044820152606490fd5b610dae9150843d8611610a8557610a7781836115a4565b86610d26565b604092917f9d12e8f6cb44ec2aacb1a45887109f5e56b3f6b9209fbc36630a4c59e38cc02f9496600260019360ff1916179055610df7600782015460095461177c565b60095501541693600082519160028352820152a3005b60405162461bcd60e51b815260048101869052600b60248201526a139bdd08195e1c1a5c995960aa1b6044820152606490fd5b5060005481163314610c27565b3461012457602080600319360112610124576001546001600160a01b039160043591831633148015610fa4575b610e839061172c565b8160005260058152604060002092610e9d845415156117c3565b600a8401805460ff811690600482101561077957610ebd600392156117fb565b60ff1916179055600a546001850180546007909601805460405163a9059cbb60e01b81529785166001600160a01b031660048901526024880152959091849082908516816000816044810103925af190811561030a57600091610f87575b5015610f5257907f8a0196fda6da7ce83909702d34f7d32140102ef6663cbdff735f1842ba83ad80929154169354604051908152a3005b60405162461bcd60e51b815260048101849052600d60248201526c1499599d5b990819985a5b1959609a1b6044820152606490fd5b610f9e9150843d8611610a8557610a7781836115a4565b86610f1b565b5060005483163314610e7a565b3461012457602080600319360112610124576001600160a01b03610fd3611537565b1660005260068152604060002090604051908181845491828152019360005281600020916000905b828210611012576101888561017c818903826115a4565b835486529485019460019384019390910190610ffb565b34610124576020366003190112610124576004356000908152600560205260409020805460018201546001600160a01b031691611068600282016115c6565b611074600383016115c6565b60048301549290611087600583016115c6565b9360068301549460078401546008850154600986015491600a87015460ff1693600b88015495600c89015497600d8a015499600e01549a6040519e8f9e8f908152602001528d6101e090816040820152016110e1916114ea565b8d810360608f01526110f2916114ea565b9060808d01528b810360a08d0152611109916114ea565b9860c08b015260e08a0152610100890152610120880152610140870161112e9161152a565b6101608601526101808501526101a08401526101c08301520390f35b3461012457604036600319011261012457611163611537565b6000546001600160a01b039190602435906111819084163314611854565b60095491828211611247576111d79361119c83602095611847565b600955600a541690600060405180968195829463a9059cbb60e01b84526004840160209093929193604081019460018060a01b031681520152565b03925af190811561030a57600091611229575b50156111f257005b60405162461bcd60e51b815260206004820152600f60248201526e15da5d1a191c985dc819985a5b1959608a1b6044820152606490fd5b611241915060203d8111610a8557610a7781836115a4565b816111ea565b60405162461bcd60e51b81526020600482015260156024820152744578636565647320686f7573652062616c616e636560581b6044820152606490fd5b34610124576000366003190112610124576020600354604051908152f35b34610124576020366003190112610124576101c0816112c2600093611587565b82815282602082015260606040820152606080820152826080820152606060a08201528260c08201528260e08201528261010082015282610120820152826101408201528261016082015282610180820152826101a08201520152600435600052600560205260406000206040519061133a82611587565b8054825260018101546001600160a01b0316602083015261135d600282016115c6565b604083015261136e600382016115c6565b606083015260048101546080830152611389600582016115c6565b60a0830152600681015460c0830152600781015460e08301526008810154610100830152600981015461012083015260ff600a8201541690600482101561077957600e91610140840152600b810154610160840152600c810154610180840152600d8101546101a084015201546101c08201526040518091602082528051602083015260018060a01b0360208201511660408301526101c061147a61143f60408401516101e060608701526102008601906114ea565b61145b606085015191601f1992838883030160808901526114ea565b90608085015160a087015260a0850151908683030160c08701526114ea565b9160c081015160e085015260e08101516101008501526101008101516101208501526101208101516101408501526114bc61014082015161016086019061152a565b6101608101516101808501526101808101516101a08501526101a08101518285015201516101e08301520390f35b919082519283825260005b848110611516575050826000602080949584010152601f8019910116010190565b6020818301810151848301820152016114f5565b9060048210156107795752565b600435906001600160a01b038216820361012457565b90600182811c9216801561157d575b602083101461156757565b634e487b7160e01b600052602260045260246000fd5b91607f169161155c565b6101e0810190811067ffffffffffffffff82111761085a57604052565b90601f8019910116810190811067ffffffffffffffff82111761085a57604052565b90604051918260008254926115da8461154d565b9081845260019485811690816000146116495750600114611606575b5050611604925003836115a4565b565b9093915060005260209081600020936000915b818310611631575050611604935082010138806115f6565b85548884018501529485019487945091830191611619565b91505061160494506020925060ff191682840152151560051b82010138806115f6565b6020908160408183019282815285518094520193019160005b828110611693575050505090565b835185529381019392810192600101611685565b80548210156116bf5760005260206000200190600090565b634e487b7160e01b600052603260045260246000fd5b81601f820112156101245780359067ffffffffffffffff821161085a576040519261170a601f8401601f1916602001856115a4565b8284526020838301011161012457816000926020809301838601378301015290565b1561173357565b60405162461bcd60e51b8152602060048201526009602482015268139bdd081859d95b9d60ba1b6044820152606490fd5b90816020910312610124575180151581036101245790565b91908201809211610a0b57565b80546801000000000000000081101561085a576117ab916001820181556116a7565b819291549060031b91821b91600019901b1916179055565b156117ca57565b60405162461bcd60e51b8152602060048201526009602482015268139bdd08199bdd5b9960ba1b6044820152606490fd5b1561180257565b60405162461bcd60e51b815260206004820152600a6024820152694e6f742061637469766560b01b6044820152606490fd5b81810292918115918404141715610a0b57565b91908203918211610a0b57565b1561185b57565b60405162461bcd60e51b81526020600482015260096024820152682737ba1037bbb732b960b91b6044820152606490fdfea26469706673582212203e40764c189dd01862143bf6b71e6cd9abf931b8238ab615714286de32d7929964736f6c63430008140033","opcodes":"PUSH1 0x80 CALLVALUE PUSH2 0x98 JUMPI PUSH1 0x1F PUSH2 0x1976 CODESIZE DUP2 SWAP1 SUB SWAP2 DUP3 ADD PUSH1 0x1F NOT AND DUP4 ADD SWAP2 PUSH1 0x1 PUSH1 0x1 PUSH1 0x40 SHL SUB DUP4 GT DUP5 DUP5 LT OR PUSH2 0x9D JUMPI DUP1 DUP5 SWAP3 PUSH1 0x20 SWAP5 PUSH1 0x40 MSTORE DUP4 CODECOPY DUP2 ADD SUB SLT PUSH2 0x98 JUMPI MLOAD PUSH1 0x1 PUSH1 0x1 PUSH1 0xA0 SHL SUB DUP2 AND SWAP1 DUP2 SWAP1 SUB PUSH2 0x98 JUMPI PUSH1 0x1 PUSH1 0x2 SSTORE PUSH1 0x4B PUSH1 0x3 SSTORE PUSH2 0x73A PUSH1 0x4 SSTORE PUSH1 0x1 DUP1 PUSH1 0xA0 SHL SUB NOT PUSH1 0x1B PUSH1 0x99 SHL DUP2 PUSH1 0xA SLOAD AND OR PUSH1 0xA SSTORE CALLER DUP2 PUSH1 0x0 SLOAD AND OR PUSH1 0x0 SSTORE PUSH1 0x1 SLOAD AND OR PUSH1 0x1 SSTORE PUSH1 0x40 MLOAD PUSH2 0x18C2 SWAP1 DUP2 PUSH2 0xB4 DUP3 CODECOPY RETURN JUMPDEST PUSH1 0x0 DUP1 REVERT JUMPDEST PUSH4 0x4E487B71 PUSH1 0xE0 SHL PUSH1 0x0 MSTORE PUSH1 0x41 PUSH1 0x4 MSTORE PUSH1 0x24 PUSH1 0x0 REVERT INVALID PUSH1 0x80 DUP1 PUSH1 0x40 MSTORE PUSH1 0x4 CALLDATASIZE LT ISZERO PUSH2 0x13 JUMPI PUSH1 0x0 DUP1 REVERT JUMPDEST PUSH1 0x0 CALLDATALOAD PUSH1 0xE0 SHR SWAP1 DUP2 PUSH4 0x61E494F EQ PUSH2 0x12A2 JUMPI POP DUP1 PUSH4 0xED469B8 EQ PUSH2 0x1284 JUMPI DUP1 PUSH4 0x1D459A95 EQ PUSH2 0x114A JUMPI DUP1 PUSH4 0x22AF00FA EQ PUSH2 0x1029 JUMPI DUP1 PUSH4 0x2D56657D EQ PUSH2 0xFB1 JUMPI DUP1 PUSH4 0x357401F5 EQ PUSH2 0xE4D JUMPI DUP1 PUSH4 0x5A645C92 EQ PUSH2 0xBF0 JUMPI DUP1 PUSH4 0x5C812737 EQ PUSH2 0xBD2 JUMPI DUP1 PUSH4 0x5CC9E4DC EQ PUSH2 0xB88 JUMPI DUP1 PUSH4 0x5F81A57C EQ PUSH2 0xB6A JUMPI DUP1 PUSH4 0x67084EB3 EQ PUSH2 0xB4C JUMPI DUP1 PUSH4 0x774181C9 EQ PUSH2 0x336 JUMPI DUP1 PUSH4 0x89A30271 EQ PUSH2 0x316 JUMPI DUP1 PUSH4 0x8B7AFE2E EQ PUSH2 0x282 JUMPI DUP1 PUSH4 0x8DA5CB5B EQ PUSH2 0x259 JUMPI DUP1 PUSH4 0x9ACA2792 EQ PUSH2 0x23B JUMPI DUP1 PUSH4 0xBCF685ED EQ PUSH2 0x1EA JUMPI DUP1 PUSH4 0xD8638341 EQ PUSH2 0x1A3 JUMPI DUP1 PUSH4 0xE96AA52C EQ PUSH2 0x129 JUMPI PUSH4 0xF5FF5C76 EQ PUSH2 0xFB JUMPI PUSH1 0x0 DUP1 REVERT JUMPDEST CALLVALUE PUSH2 0x124 JUMPI PUSH1 0x0 CALLDATASIZE PUSH1 0x3 NOT ADD SLT PUSH2 0x124 JUMPI PUSH1 0x1 SLOAD PUSH1 0x40 MLOAD PUSH1 0x1 PUSH1 0x1 PUSH1 0xA0 SHL SUB SWAP1 SWAP2 AND DUP2 MSTORE PUSH1 0x20 SWAP1 RETURN JUMPDEST PUSH1 0x0 DUP1 REVERT JUMPDEST CALLVALUE PUSH2 0x124 JUMPI PUSH1 0x20 DUP1 PUSH1 0x3 NOT CALLDATASIZE ADD SLT PUSH2 0x124 JUMPI PUSH1 0x4 CALLDATALOAD PUSH1 0x0 MSTORE PUSH1 0x7 DUP2 MSTORE PUSH1 0x40 PUSH1 0x0 KECCAK256 SWAP1 PUSH1 0x40 MLOAD SWAP1 DUP2 DUP2 DUP5 SLOAD SWAP2 DUP3 DUP2 MSTORE ADD SWAP4 PUSH1 0x0 MSTORE DUP2 PUSH1 0x0 KECCAK256 SWAP2 PUSH1 0x0 SWAP1 JUMPDEST DUP3 DUP3 LT PUSH2 0x18C JUMPI PUSH2 0x188 DUP6 PUSH2 0x17C DUP2 DUP10 SUB DUP3 PUSH2 0x15A4 JUMP JUMPDEST PUSH1 0x40 MLOAD SWAP2 DUP3 SWAP2 DUP3 PUSH2 0x166C JUMP JUMPDEST SUB SWAP1 RETURN JUMPDEST DUP4 SLOAD DUP7 MSTORE SWAP5 DUP6 ADD SWAP5 PUSH1 0x1 SWAP4 DUP5 ADD SWAP4 SWAP1 SWAP2 ADD SWAP1 PUSH2 0x165 JUMP JUMPDEST CALLVALUE PUSH2 0x124 JUMPI PUSH1 0x40 CALLDATASIZE PUSH1 0x3 NOT ADD SLT PUSH2 0x124 JUMPI PUSH1 0x24 CALLDATALOAD PUSH1 0x4 CALLDATALOAD PUSH1 0x0 MSTORE PUSH1 0x7 PUSH1 0x20 MSTORE PUSH1 0x40 PUSH1 0x0 KECCAK256 DUP1 SLOAD DUP3 LT ISZERO PUSH2 0x124 JUMPI PUSH1 0x20 SWAP2 PUSH2 0x1DC SWAP2 PUSH2 0x16A7 JUMP JUMPDEST SWAP1 SLOAD PUSH1 0x40 MLOAD SWAP2 PUSH1 0x3 SHL SHR DUP2 MSTORE RETURN JUMPDEST CALLVALUE PUSH2 0x124 JUMPI PUSH1 0x20 CALLDATASIZE PUSH1 0x3 NOT ADD SLT PUSH2 0x124 JUMPI PUSH2 0x203 PUSH2 0x1537 JUMP JUMPDEST PUSH1 0x0 SLOAD PUSH1 0x1 PUSH1 0x1 PUSH1 0xA0 SHL SUB SWAP2 SWAP1 PUSH2 0x21D SWAP1 DUP4 AND CALLER EQ PUSH2 0x1854 JUMP JUMPDEST AND PUSH12 0xFFFFFFFFFFFFFFFFFFFFFFFF PUSH1 0xA0 SHL PUSH1 0x1 SLOAD AND OR PUSH1 0x1 SSTORE PUSH1 0x0 DUP1 RETURN JUMPDEST CALLVALUE PUSH2 0x124 JUMPI PUSH1 0x0 CALLDATASIZE PUSH1 0x3 NOT ADD SLT PUSH2 0x124 JUMPI PUSH1 0x20 PUSH1 0x2 SLOAD PUSH1 0x40 MLOAD SWAP1 DUP2 MSTORE RETURN JUMPDEST CALLVALUE PUSH2 0x124 JUMPI PUSH1 0x0 CALLDATASIZE PUSH1 0x3 NOT ADD SLT PUSH2 0x124 JUMPI PUSH1 0x0 SLOAD PUSH1 0x40 MLOAD PUSH1 0x1 PUSH1 0x1 PUSH1 0xA0 SHL SUB SWAP1 SWAP2 AND DUP2 MSTORE PUSH1 0x20 SWAP1 RETURN JUMPDEST CALLVALUE PUSH2 0x124 JUMPI PUSH1 0x0 CALLDATASIZE PUSH1 0x3 NOT ADD SLT PUSH2 0x124 JUMPI PUSH1 0xA SLOAD PUSH1 0x40 MLOAD PUSH4 0x70A08231 PUSH1 0xE0 SHL DUP2 MSTORE ADDRESS PUSH1 0x4 DUP3 ADD MSTORE SWAP1 PUSH1 0x20 SWAP1 DUP3 SWAP1 PUSH1 0x24 SWAP1 DUP3 SWAP1 PUSH1 0x1 PUSH1 0x1 PUSH1 0xA0 SHL SUB AND GAS STATICCALL DUP1 ISZERO PUSH2 0x30A JUMPI PUSH1 0x0 SWAP1 PUSH2 0x2D8 JUMPI JUMPDEST PUSH1 0x20 SWAP1 PUSH1 0x40 MLOAD SWAP1 DUP2 MSTORE RETURN JUMPDEST POP PUSH1 0x20 DUP2 RETURNDATASIZE DUP3 GT PUSH2 0x302 JUMPI JUMPDEST DUP2 PUSH2 0x2F1 PUSH1 0x20 SWAP4 DUP4 PUSH2 0x15A4 JUMP JUMPDEST DUP2 ADD SUB SLT PUSH2 0x124 JUMPI PUSH1 0x20 SWAP1 MLOAD PUSH2 0x2CD JUMP JUMPDEST RETURNDATASIZE SWAP2 POP PUSH2 0x2E4 JUMP JUMPDEST PUSH1 0x40 MLOAD RETURNDATASIZE PUSH1 0x0 DUP3 RETURNDATACOPY RETURNDATASIZE SWAP1 REVERT JUMPDEST CALLVALUE PUSH2 0x124 JUMPI PUSH1 0x0 CALLDATASIZE PUSH1 0x3 NOT ADD SLT PUSH2 0x124 JUMPI PUSH1 0x40 MLOAD PUSH1 0x1B PUSH1 0x99 SHL DUP2 MSTORE PUSH1 0x20 SWAP1 RETURN JUMPDEST CALLVALUE PUSH2 0x124 JUMPI PUSH2 0x140 CALLDATASIZE PUSH1 0x3 NOT ADD SLT PUSH2 0x124 JUMPI PUSH2 0x350 PUSH2 0x1537 JUMP JUMPDEST PUSH1 0x24 CALLDATALOAD PUSH8 0xFFFFFFFFFFFFFFFF DUP2 GT PUSH2 0x124 JUMPI PUSH2 0x370 SWAP1 CALLDATASIZE SWAP1 PUSH1 0x4 ADD PUSH2 0x16D5 JUMP JUMPDEST SWAP1 PUSH1 0x44 CALLDATALOAD PUSH8 0xFFFFFFFFFFFFFFFF DUP2 GT PUSH2 0x124 JUMPI PUSH2 0x391 SWAP1 CALLDATASIZE SWAP1 PUSH1 0x4 ADD PUSH2 0x16D5 JUMP JUMPDEST SWAP1 PUSH1 0x84 CALLDATALOAD PUSH8 0xFFFFFFFFFFFFFFFF DUP2 GT PUSH2 0x124 JUMPI PUSH2 0x3B2 SWAP1 CALLDATASIZE SWAP1 PUSH1 0x4 ADD PUSH2 0x16D5 JUMP JUMPDEST SWAP2 PUSH1 0x1 DUP1 PUSH1 0xA0 SHL SUB PUSH1 0x1 SLOAD AND CALLER EQ DUP1 ISZERO PUSH2 0xB38 JUMPI JUMPDEST PUSH2 0x3D0 SWAP1 PUSH2 0x172C JUMP JUMPDEST PUSH1 0xC4 CALLDATALOAD ISZERO PUSH2 0xB01 JUMPI PUSH1 0x3C PUSH1 0xA4 CALLDATALOAD LT PUSH2 0xAD2 JUMPI PUSH1 0x1 PUSH1 0xE4 CALLDATALOAD LT ISZERO DUP1 PUSH2 0xAC3 JUMPI JUMPDEST ISZERO PUSH2 0xA8C JUMPI PUSH1 0xA SLOAD PUSH1 0x40 MLOAD PUSH4 0x23B872DD PUSH1 0xE0 SHL DUP2 MSTORE CALLER PUSH1 0x4 DUP3 ADD MSTORE ADDRESS PUSH1 0x24 DUP3 ADD MSTORE PUSH1 0xC4 CALLDATALOAD PUSH1 0x44 DUP3 ADD MSTORE SWAP1 PUSH1 0x20 SWAP1 DUP3 SWAP1 PUSH1 0x64 SWAP1 DUP3 SWAP1 PUSH1 0x0 SWAP1 PUSH1 0x1 PUSH1 0x1 PUSH1 0xA0 SHL SUB AND GAS CALL SWAP1 DUP2 ISZERO PUSH2 0x30A JUMPI PUSH1 0x0 SWAP2 PUSH2 0xA5D JUMPI JUMPDEST POP ISZERO PUSH2 0xA21 JUMPI PUSH1 0x2 SLOAD SWAP3 PUSH1 0x0 NOT DUP5 EQ PUSH2 0xA0B JUMPI PUSH1 0x1 DUP5 ADD PUSH1 0x2 SSTORE PUSH2 0x466 PUSH1 0xA4 CALLDATALOAD TIMESTAMP PUSH2 0x177C JUMP JUMPDEST SWAP1 PUSH1 0x40 MLOAD SWAP3 PUSH2 0x474 DUP5 PUSH2 0x1587 JUMP JUMPDEST DUP6 DUP5 MSTORE PUSH1 0x1 DUP1 PUSH1 0xA0 SHL SUB DUP6 AND PUSH1 0x20 DUP6 ADD MSTORE DUP7 PUSH1 0x40 DUP6 ADD MSTORE PUSH1 0x60 DUP5 ADD MSTORE PUSH1 0x64 CALLDATALOAD PUSH1 0x80 DUP5 ADD MSTORE PUSH1 0xA0 DUP4 ADD MSTORE PUSH1 0xA4 CALLDATALOAD PUSH1 0xC0 DUP4 ADD MSTORE PUSH1 0xC4 CALLDATALOAD PUSH1 0xE0 DUP4 ADD MSTORE TIMESTAMP PUSH2 0x100 DUP4 ADD MSTORE PUSH2 0x120 DUP3 ADD MSTORE PUSH1 0x0 PUSH2 0x140 DUP3 ADD MSTORE PUSH1 0x0 PUSH2 0x160 DUP3 ADD MSTORE PUSH1 0xE4 CALLDATALOAD PUSH2 0x180 DUP3 ADD MSTORE PUSH2 0x104 CALLDATALOAD PUSH2 0x1A0 DUP3 ADD MSTORE PUSH2 0x124 CALLDATALOAD PUSH2 0x1C0 DUP3 ADD MSTORE DUP3 PUSH1 0x0 MSTORE PUSH1 0x5 PUSH1 0x20 MSTORE PUSH1 0x40 PUSH1 0x0 KECCAK256 SWAP1 DUP1 MLOAD DUP3 SSTORE PUSH1 0x1 DUP3 ADD PUSH1 0x1 DUP1 PUSH1 0xA0 SHL SUB PUSH1 0x20 DUP4 ADD MLOAD AND PUSH12 0xFFFFFFFFFFFFFFFFFFFFFFFF PUSH1 0xA0 SHL DUP3 SLOAD AND OR SWAP1 SSTORE PUSH1 0x40 DUP2 ADD MLOAD DUP1 MLOAD SWAP1 PUSH8 0xFFFFFFFFFFFFFFFF DUP3 GT PUSH2 0x85A JUMPI DUP2 SWAP1 PUSH2 0x547 PUSH1 0x2 DUP7 ADD SLOAD PUSH2 0x154D JUMP JUMPDEST PUSH1 0x1F DUP2 GT PUSH2 0x9B8 JUMPI JUMPDEST POP PUSH1 0x20 SWAP1 PUSH1 0x1F DUP4 GT PUSH1 0x1 EQ PUSH2 0x94B JUMPI PUSH1 0x0 SWAP3 PUSH2 0x940 JUMPI JUMPDEST POP POP DUP2 PUSH1 0x1 SHL SWAP2 PUSH1 0x0 NOT SWAP1 PUSH1 0x3 SHL SHR NOT AND OR PUSH1 0x2 DUP4 ADD SSTORE JUMPDEST PUSH1 0x60 DUP2 ADD MLOAD DUP1 MLOAD SWAP1 PUSH8 0xFFFFFFFFFFFFFFFF DUP3 GT PUSH2 0x85A JUMPI DUP2 SWAP1 PUSH2 0x5A5 PUSH1 0x3 DUP7 ADD SLOAD PUSH2 0x154D JUMP JUMPDEST PUSH1 0x1F DUP2 GT PUSH2 0x8ED JUMPI JUMPDEST POP PUSH1 0x20 SWAP1 PUSH1 0x1F DUP4 GT PUSH1 0x1 EQ PUSH2 0x87B JUMPI PUSH1 0x0 SWAP3 PUSH2 0x870 JUMPI JUMPDEST POP POP DUP2 PUSH1 0x1 SHL SWAP2 PUSH1 0x0 NOT SWAP1 PUSH1 0x3 SHL SHR NOT AND OR PUSH1 0x3 DUP4 ADD SSTORE JUMPDEST PUSH1 0x80 DUP2 ADD MLOAD PUSH1 0x4 DUP4 ADD SSTORE PUSH1 0xA0 DUP2 ADD MLOAD DUP1 MLOAD SWAP1 PUSH8 0xFFFFFFFFFFFFFFFF DUP3 GT PUSH2 0x85A JUMPI DUP2 SWAP1 PUSH2 0x60D PUSH1 0x5 DUP7 ADD SLOAD PUSH2 0x154D JUMP JUMPDEST PUSH1 0x1F DUP2 GT PUSH2 0x807 JUMPI JUMPDEST POP PUSH1 0x20 SWAP1 PUSH1 0x1F DUP4 GT PUSH1 0x1 EQ PUSH2 0x79A JUMPI PUSH1 0x0 SWAP3 PUSH2 0x78F JUMPI JUMPDEST POP POP DUP2 PUSH1 0x1 SHL SWAP2 PUSH1 0x0 NOT SWAP1 PUSH1 0x3 SHL SHR NOT AND OR PUSH1 0x5 DUP4 ADD SSTORE JUMPDEST PUSH1 0xC0 DUP2 ADD MLOAD PUSH1 0x6 DUP4 ADD SSTORE PUSH1 0xE0 DUP2 ADD MLOAD PUSH1 0x7 DUP4 ADD SSTORE PUSH2 0x100 DUP2 ADD MLOAD PUSH1 0x8 DUP4 ADD SSTORE PUSH2 0x120 DUP2 ADD MLOAD PUSH1 0x9 DUP4 ADD SSTORE PUSH2 0x140 DUP2 ADD MLOAD PUSH1 0x4 DUP2 LT ISZERO PUSH2 0x779 JUMPI PUSH1 0x20 SWAP6 DUP4 PUSH1 0xE PUSH2 0x1C0 PUSH32 0xB3E6D1A3EB0D5B102DC62F841AE965034F1229318CB7B93F4AE450F8382E3D01 SWAP6 PUSH2 0x741 SWAP6 PUSH1 0xA DUP12 SWAP10 ADD SWAP1 PUSH1 0xFF DUP1 NOT DUP4 SLOAD AND SWAP2 AND OR SWAP1 SSTORE PUSH2 0x160 DUP2 ADD MLOAD PUSH1 0xB DUP6 ADD SSTORE PUSH2 0x180 DUP2 ADD MLOAD PUSH1 0xC DUP6 ADD SSTORE PUSH2 0x1A0 DUP2 ADD MLOAD PUSH1 0xD DUP6 ADD SSTORE ADD MLOAD SWAP2 ADD SSTORE PUSH1 0x1 DUP1 PUSH1 0xA0 SHL SUB DUP6 AND PUSH1 0x0 MSTORE PUSH1 0x6 DUP8 MSTORE PUSH2 0x703 DUP5 PUSH1 0x40 PUSH1 0x0 KECCAK256 PUSH2 0x1789 JUMP JUMPDEST PUSH2 0x124 CALLDATALOAD PUSH1 0x0 MSTORE PUSH1 0x7 DUP8 MSTORE PUSH2 0x71C DUP5 PUSH1 0x40 PUSH1 0x0 KECCAK256 PUSH2 0x1789 JUMP JUMPDEST PUSH2 0x72A PUSH1 0xC4 CALLDATALOAD PUSH1 0x8 SLOAD PUSH2 0x177C JUMP JUMPDEST PUSH1 0x8 SSTORE PUSH1 0x40 MLOAD SWAP2 DUP3 SWAP2 PUSH1 0xA0 DUP4 MSTORE PUSH1 0xA0 DUP4 ADD SWAP1 PUSH2 0x14EA JUMP JUMPDEST PUSH1 0xC4 CALLDATALOAD DUP3 DUP10 ADD MSTORE PUSH2 0x124 CALLDATALOAD PUSH1 0x40 DUP4 ADD MSTORE PUSH1 0xE4 CALLDATALOAD PUSH1 0x60 DUP4 ADD MSTORE PUSH2 0x104 CALLDATALOAD PUSH1 0x80 DUP4 ADD MSTORE PUSH1 0x1 PUSH1 0x1 PUSH1 0xA0 SHL SUB SWAP1 SWAP6 AND SWAP5 SUB SWAP1 LOG3 PUSH1 0x40 MLOAD SWAP1 DUP2 MSTORE RETURN JUMPDEST PUSH4 0x4E487B71 PUSH1 0xE0 SHL PUSH1 0x0 MSTORE PUSH1 0x21 PUSH1 0x4 MSTORE PUSH1 0x24 PUSH1 0x0 REVERT JUMPDEST ADD MLOAD SWAP1 POP DUP8 DUP1 PUSH2 0x62D JUMP JUMPDEST PUSH1 0x5 DUP7 ADD PUSH1 0x0 SWAP1 DUP2 MSTORE PUSH1 0x20 DUP2 KECCAK256 SWAP4 POP PUSH1 0x1F NOT DUP6 AND SWAP1 JUMPDEST DUP2 DUP2 LT PUSH2 0x7EF JUMPI POP SWAP1 DUP5 PUSH1 0x1 SWAP6 SWAP5 SWAP4 SWAP3 LT PUSH2 0x7D6 JUMPI JUMPDEST POP POP POP DUP2 SHL ADD PUSH1 0x5 DUP4 ADD SSTORE PUSH2 0x645 JUMP JUMPDEST ADD MLOAD PUSH1 0x0 NOT PUSH1 0xF8 DUP5 PUSH1 0x3 SHL AND SHR NOT AND SWAP1 SSTORE DUP8 DUP1 DUP1 PUSH2 0x7C6 JUMP JUMPDEST SWAP3 SWAP4 PUSH1 0x20 PUSH1 0x1 DUP2 SWAP3 DUP8 DUP7 ADD MLOAD DUP2 SSTORE ADD SWAP6 ADD SWAP4 ADD PUSH2 0x7B0 JUMP JUMPDEST SWAP1 SWAP2 POP PUSH1 0x5 DUP6 ADD PUSH1 0x0 MSTORE PUSH1 0x20 PUSH1 0x0 KECCAK256 PUSH1 0x1F DUP5 ADD PUSH1 0x5 SHR DUP2 ADD PUSH1 0x20 DUP6 LT PUSH2 0x853 JUMPI JUMPDEST SWAP1 DUP5 SWAP4 SWAP3 SWAP2 JUMPDEST PUSH1 0x1F DUP4 ADD PUSH1 0x5 SHR DUP3 ADD DUP2 LT PUSH2 0x844 JUMPI POP POP PUSH2 0x616 JUMP JUMPDEST PUSH1 0x0 DUP2 SSTORE DUP6 SWAP5 POP PUSH1 0x1 ADD PUSH2 0x82E JUMP JUMPDEST POP DUP1 PUSH2 0x828 JUMP JUMPDEST PUSH4 0x4E487B71 PUSH1 0xE0 SHL PUSH1 0x0 MSTORE PUSH1 0x41 PUSH1 0x4 MSTORE PUSH1 0x24 PUSH1 0x0 REVERT JUMPDEST ADD MLOAD SWAP1 POP DUP8 DUP1 PUSH2 0x5C5 JUMP JUMPDEST SWAP3 POP PUSH1 0x3 DUP6 ADD PUSH1 0x0 MSTORE PUSH1 0x20 PUSH1 0x0 KECCAK256 SWAP1 PUSH1 0x0 SWAP4 JUMPDEST PUSH1 0x1F NOT DUP5 AND DUP6 LT PUSH2 0x8D2 JUMPI PUSH1 0x1 SWAP5 POP DUP4 PUSH1 0x1F NOT DUP2 AND LT PUSH2 0x8B9 JUMPI JUMPDEST POP POP POP DUP2 SHL ADD PUSH1 0x3 DUP4 ADD SSTORE PUSH2 0x5DD JUMP JUMPDEST ADD MLOAD PUSH1 0x0 NOT PUSH1 0xF8 DUP5 PUSH1 0x3 SHL AND SHR NOT AND SWAP1 SSTORE DUP8 DUP1 DUP1 PUSH2 0x8A9 JUMP JUMPDEST DUP2 DUP2 ADD MLOAD DUP4 SSTORE PUSH1 0x20 SWAP5 DUP6 ADD SWAP5 PUSH1 0x1 SWAP1 SWAP4 ADD SWAP3 SWAP1 SWAP2 ADD SWAP1 PUSH2 0x88E JUMP JUMPDEST SWAP1 SWAP2 POP PUSH1 0x3 DUP6 ADD PUSH1 0x0 MSTORE PUSH1 0x20 PUSH1 0x0 KECCAK256 PUSH1 0x1F DUP5 ADD PUSH1 0x5 SHR DUP2 ADD PUSH1 0x20 DUP6 LT PUSH2 0x939 JUMPI JUMPDEST SWAP1 DUP5 SWAP4 SWAP3 SWAP2 JUMPDEST PUSH1 0x1F DUP4 ADD PUSH1 0x5 SHR DUP3 ADD DUP2 LT PUSH2 0x92A JUMPI POP POP PUSH2 0x5AE JUMP JUMPDEST PUSH1 0x0 DUP2 SSTORE DUP6 SWAP5 POP PUSH1 0x1 ADD PUSH2 0x914 JUMP JUMPDEST POP DUP1 PUSH2 0x90E JUMP JUMPDEST ADD MLOAD SWAP1 POP DUP8 DUP1 PUSH2 0x567 JUMP JUMPDEST PUSH1 0x2 DUP7 ADD PUSH1 0x0 SWAP1 DUP2 MSTORE PUSH1 0x20 DUP2 KECCAK256 SWAP4 POP PUSH1 0x1F NOT DUP6 AND SWAP1 JUMPDEST DUP2 DUP2 LT PUSH2 0x9A0 JUMPI POP SWAP1 DUP5 PUSH1 0x1 SWAP6 SWAP5 SWAP4 SWAP3 LT PUSH2 0x987 JUMPI JUMPDEST POP POP POP DUP2 SHL ADD PUSH1 0x2 DUP4 ADD SSTORE PUSH2 0x57F JUMP JUMPDEST ADD MLOAD PUSH1 0x0 NOT PUSH1 0xF8 DUP5 PUSH1 0x3 SHL AND SHR NOT AND SWAP1 SSTORE DUP8 DUP1 DUP1 PUSH2 0x977 JUMP JUMPDEST SWAP3 SWAP4 PUSH1 0x20 PUSH1 0x1 DUP2 SWAP3 DUP8 DUP7 ADD MLOAD DUP2 SSTORE ADD SWAP6 ADD SWAP4 ADD PUSH2 0x961 JUMP JUMPDEST SWAP1 SWAP2 POP PUSH1 0x2 DUP6 ADD PUSH1 0x0 MSTORE PUSH1 0x20 PUSH1 0x0 KECCAK256 PUSH1 0x1F DUP5 ADD PUSH1 0x5 SHR DUP2 ADD PUSH1 0x20 DUP6 LT PUSH2 0xA04 JUMPI JUMPDEST SWAP1 DUP5 SWAP4 SWAP3 SWAP2 JUMPDEST PUSH1 0x1F DUP4 ADD PUSH1 0x5 SHR DUP3 ADD DUP2 LT PUSH2 0x9F5 JUMPI POP POP PUSH2 0x550 JUMP JUMPDEST PUSH1 0x0 DUP2 SSTORE DUP6 SWAP5 POP PUSH1 0x1 ADD PUSH2 0x9DF JUMP JUMPDEST POP DUP1 PUSH2 0x9D9 JUMP JUMPDEST PUSH4 0x4E487B71 PUSH1 0xE0 SHL PUSH1 0x0 MSTORE PUSH1 0x11 PUSH1 0x4 MSTORE PUSH1 0x24 PUSH1 0x0 REVERT JUMPDEST PUSH1 0x40 MLOAD PUSH3 0x461BCD PUSH1 0xE5 SHL DUP2 MSTORE PUSH1 0x20 PUSH1 0x4 DUP3 ADD MSTORE PUSH1 0x14 PUSH1 0x24 DUP3 ADD MSTORE PUSH20 0x1554D110C81D1C985B9CD9995C8819985A5B1959 PUSH1 0x62 SHL PUSH1 0x44 DUP3 ADD MSTORE PUSH1 0x64 SWAP1 REVERT JUMPDEST PUSH2 0xA7F SWAP2 POP PUSH1 0x20 RETURNDATASIZE PUSH1 0x20 GT PUSH2 0xA85 JUMPI JUMPDEST PUSH2 0xA77 DUP2 DUP4 PUSH2 0x15A4 JUMP JUMPDEST DUP2 ADD SWAP1 PUSH2 0x1764 JUMP JUMPDEST DUP6 PUSH2 0x440 JUMP JUMPDEST POP RETURNDATASIZE PUSH2 0xA6D JUMP JUMPDEST PUSH1 0x40 MLOAD PUSH3 0x461BCD PUSH1 0xE5 SHL DUP2 MSTORE PUSH1 0x20 PUSH1 0x4 DUP3 ADD MSTORE PUSH1 0xF PUSH1 0x24 DUP3 ADD MSTORE PUSH15 0x84C2C840E2EACAEACA40D2DCC8CAF PUSH1 0x8B SHL PUSH1 0x44 DUP3 ADD MSTORE PUSH1 0x64 SWAP1 REVERT JUMPDEST POP PUSH2 0x104 CALLDATALOAD PUSH1 0xE4 CALLDATALOAD GT ISZERO PUSH2 0x3EF JUMP JUMPDEST PUSH1 0x40 MLOAD PUSH3 0x461BCD PUSH1 0xE5 SHL DUP2 MSTORE PUSH1 0x20 PUSH1 0x4 DUP3 ADD MSTORE PUSH1 0x7 PUSH1 0x24 DUP3 ADD MSTORE PUSH7 0x4D696E20363073 PUSH1 0xC8 SHL PUSH1 0x44 DUP3 ADD MSTORE PUSH1 0x64 SWAP1 REVERT JUMPDEST PUSH1 0x40 MLOAD PUSH3 0x461BCD PUSH1 0xE5 SHL DUP2 MSTORE PUSH1 0x20 PUSH1 0x4 DUP3 ADD MSTORE PUSH1 0xF PUSH1 0x24 DUP3 ADD MSTORE PUSH15 0x105B5BDD5B9D081C995C5D5A5C9959 PUSH1 0x8A SHL PUSH1 0x44 DUP3 ADD MSTORE PUSH1 0x64 SWAP1 REVERT JUMPDEST POP PUSH1 0x0 SLOAD PUSH1 0x1 PUSH1 0x1 PUSH1 0xA0 SHL SUB AND CALLER EQ PUSH2 0x3C7 JUMP JUMPDEST CALLVALUE PUSH2 0x124 JUMPI PUSH1 0x0 CALLDATASIZE PUSH1 0x3 NOT ADD SLT PUSH2 0x124 JUMPI PUSH1 0x20 PUSH1 0x9 SLOAD PUSH1 0x40 MLOAD SWAP1 DUP2 MSTORE RETURN JUMPDEST CALLVALUE PUSH2 0x124 JUMPI PUSH1 0x0 CALLDATASIZE PUSH1 0x3 NOT ADD SLT PUSH2 0x124 JUMPI PUSH1 0x20 PUSH1 0x8 SLOAD PUSH1 0x40 MLOAD SWAP1 DUP2 MSTORE RETURN JUMPDEST CALLVALUE PUSH2 0x124 JUMPI PUSH1 0x40 CALLDATASIZE PUSH1 0x3 NOT ADD SLT PUSH2 0x124 JUMPI PUSH2 0xBA1 PUSH2 0x1537 JUMP JUMPDEST PUSH1 0x1 PUSH1 0x1 PUSH1 0xA0 SHL SUB AND PUSH1 0x0 SWAP1 DUP2 MSTORE PUSH1 0x6 PUSH1 0x20 MSTORE PUSH1 0x40 SWAP1 KECCAK256 DUP1 SLOAD PUSH1 0x24 CALLDATALOAD SWAP2 SWAP1 DUP3 LT ISZERO PUSH2 0x124 JUMPI PUSH1 0x20 SWAP2 PUSH2 0x1DC SWAP2 PUSH2 0x16A7 JUMP JUMPDEST CALLVALUE PUSH2 0x124 JUMPI PUSH1 0x0 CALLDATASIZE PUSH1 0x3 NOT ADD SLT PUSH2 0x124 JUMPI PUSH1 0x20 PUSH1 0x4 SLOAD PUSH1 0x40 MLOAD SWAP1 DUP2 MSTORE RETURN JUMPDEST CALLVALUE PUSH2 0x124 JUMPI PUSH1 0x40 CALLDATASIZE PUSH1 0x3 NOT ADD SLT PUSH2 0x124 JUMPI PUSH1 0x24 CALLDATALOAD PUSH1 0x4 CALLDATALOAD DUP2 ISZERO ISZERO DUP3 SUB PUSH2 0x124 JUMPI PUSH1 0x1 SLOAD PUSH1 0x1 PUSH1 0x1 PUSH1 0xA0 SHL SUB SWAP1 DUP2 AND CALLER EQ DUP1 ISZERO PUSH2 0xE40 JUMPI JUMPDEST PUSH2 0xC30 SWAP1 PUSH2 0x172C JUMP JUMPDEST DUP2 PUSH1 0x0 MSTORE PUSH1 0x20 SWAP1 PUSH1 0x5 DUP3 MSTORE PUSH1 0x40 PUSH1 0x0 KECCAK256 PUSH2 0xC4C DUP2 SLOAD ISZERO ISZERO PUSH2 0x17C3 JUMP JUMPDEST PUSH1 0xA DUP2 ADD SWAP5 DUP6 SLOAD SWAP1 PUSH1 0xFF DUP3 AND PUSH1 0x4 DUP2 LT ISZERO PUSH2 0x779 JUMPI PUSH2 0xC6B SWAP1 ISZERO PUSH2 0x17FB JUMP JUMPDEST PUSH1 0x9 DUP4 ADD SLOAD TIMESTAMP LT PUSH2 0xE0D JUMPI ISZERO PUSH2 0xDB4 JUMPI POP PUSH2 0xCD0 PUSH1 0x7 DUP3 ADD SLOAD PUSH2 0xCB6 PUSH2 0x3E8 PUSH2 0xCAE PUSH2 0xCA5 DUP3 PUSH2 0xC9D PUSH1 0x4 SLOAD DUP8 PUSH2 0x1834 JUMP JUMPDEST DIV SWAP5 DUP6 PUSH2 0x1847 JUMP JUMPDEST PUSH1 0x3 SLOAD SWAP1 PUSH2 0x1834 JUMP JUMPDEST DIV DUP1 SWAP3 PUSH2 0x1847 JUMP JUMPDEST SWAP7 PUSH1 0x1 PUSH1 0xFF NOT DUP3 SLOAD AND OR SWAP1 SSTORE DUP7 PUSH1 0xB DUP5 ADD SSTORE PUSH1 0x9 SLOAD PUSH2 0x177C JUMP JUMPDEST PUSH1 0x9 SSTORE PUSH1 0xA SLOAD PUSH1 0x1 SWAP2 SWAP1 SWAP2 ADD DUP1 SLOAD PUSH1 0x40 MLOAD PUSH4 0xA9059CBB PUSH1 0xE0 SHL DUP2 MSTORE SWAP1 DUP5 AND PUSH1 0x1 PUSH1 0x1 PUSH1 0xA0 SHL SUB AND PUSH1 0x4 DUP3 ADD MSTORE PUSH1 0x24 DUP2 ADD DUP8 SWAP1 MSTORE SWAP1 SWAP2 DUP5 SWAP1 DUP3 SWAP1 DUP6 AND DUP2 PUSH1 0x0 DUP2 PUSH1 0x44 DUP2 ADD SUB SWAP3 GAS CALL SWAP1 DUP2 ISZERO PUSH2 0x30A JUMPI PUSH1 0x0 SWAP2 PUSH2 0xD97 JUMPI JUMPDEST POP ISZERO PUSH2 0xD62 JUMPI SWAP2 PUSH1 0x40 SWAP2 PUSH32 0x9D12E8F6CB44EC2AACB1A45887109F5E56B3F6B9209FBC36630A4C59E38CC02F SWAP4 SLOAD AND SWAP5 DUP3 MLOAD SWAP2 PUSH1 0x1 DUP4 MSTORE DUP3 ADD MSTORE LOG3 STOP JUMPDEST PUSH1 0x40 MLOAD PUSH3 0x461BCD PUSH1 0xE5 SHL DUP2 MSTORE PUSH1 0x4 DUP2 ADD DUP5 SWAP1 MSTORE PUSH1 0xD PUSH1 0x24 DUP3 ADD MSTORE PUSH13 0x14185E5BDD5D0819985A5B1959 PUSH1 0x9A SHL PUSH1 0x44 DUP3 ADD MSTORE PUSH1 0x64 SWAP1 REVERT JUMPDEST PUSH2 0xDAE SWAP2 POP DUP5 RETURNDATASIZE DUP7 GT PUSH2 0xA85 JUMPI PUSH2 0xA77 DUP2 DUP4 PUSH2 0x15A4 JUMP JUMPDEST DUP7 PUSH2 0xD26 JUMP JUMPDEST PUSH1 0x40 SWAP3 SWAP2 PUSH32 0x9D12E8F6CB44EC2AACB1A45887109F5E56B3F6B9209FBC36630A4C59E38CC02F SWAP5 SWAP7 PUSH1 0x2 PUSH1 0x1 SWAP4 PUSH1 0xFF NOT AND OR SWAP1 SSTORE PUSH2 0xDF7 PUSH1 0x7 DUP3 ADD SLOAD PUSH1 0x9 SLOAD PUSH2 0x177C JUMP JUMPDEST PUSH1 0x9 SSTORE ADD SLOAD AND SWAP4 PUSH1 0x0 DUP3 MLOAD SWAP2 PUSH1 0x2 DUP4 MSTORE DUP3 ADD MSTORE LOG3 STOP JUMPDEST PUSH1 0x40 MLOAD PUSH3 0x461BCD PUSH1 0xE5 SHL DUP2 MSTORE PUSH1 0x4 DUP2 ADD DUP7 SWAP1 MSTORE PUSH1 0xB PUSH1 0x24 DUP3 ADD MSTORE PUSH11 0x139BDD08195E1C1A5C9959 PUSH1 0xAA SHL PUSH1 0x44 DUP3 ADD MSTORE PUSH1 0x64 SWAP1 REVERT JUMPDEST POP PUSH1 0x0 SLOAD DUP2 AND CALLER EQ PUSH2 0xC27 JUMP JUMPDEST CALLVALUE PUSH2 0x124 JUMPI PUSH1 0x20 DUP1 PUSH1 0x3 NOT CALLDATASIZE ADD SLT PUSH2 0x124 JUMPI PUSH1 0x1 SLOAD PUSH1 0x1 PUSH1 0x1 PUSH1 0xA0 SHL SUB SWAP2 PUSH1 0x4 CALLDATALOAD SWAP2 DUP4 AND CALLER EQ DUP1 ISZERO PUSH2 0xFA4 JUMPI JUMPDEST PUSH2 0xE83 SWAP1 PUSH2 0x172C JUMP JUMPDEST DUP2 PUSH1 0x0 MSTORE PUSH1 0x5 DUP2 MSTORE PUSH1 0x40 PUSH1 0x0 KECCAK256 SWAP3 PUSH2 0xE9D DUP5 SLOAD ISZERO ISZERO PUSH2 0x17C3 JUMP JUMPDEST PUSH1 0xA DUP5 ADD DUP1 SLOAD PUSH1 0xFF DUP2 AND SWAP1 PUSH1 0x4 DUP3 LT ISZERO PUSH2 0x779 JUMPI PUSH2 0xEBD PUSH1 0x3 SWAP3 ISZERO PUSH2 0x17FB JUMP JUMPDEST PUSH1 0xFF NOT AND OR SWAP1 SSTORE PUSH1 0xA SLOAD PUSH1 0x1 DUP6 ADD DUP1 SLOAD PUSH1 0x7 SWAP1 SWAP7 ADD DUP1 SLOAD PUSH1 0x40 MLOAD PUSH4 0xA9059CBB PUSH1 0xE0 SHL DUP2 MSTORE SWAP8 DUP6 AND PUSH1 0x1 PUSH1 0x1 PUSH1 0xA0 SHL SUB AND PUSH1 0x4 DUP10 ADD MSTORE PUSH1 0x24 DUP9 ADD MSTORE SWAP6 SWAP1 SWAP2 DUP5 SWAP1 DUP3 SWAP1 DUP6 AND DUP2 PUSH1 0x0 DUP2 PUSH1 0x44 DUP2 ADD SUB SWAP3 GAS CALL SWAP1 DUP2 ISZERO PUSH2 0x30A JUMPI PUSH1 0x0 SWAP2 PUSH2 0xF87 JUMPI JUMPDEST POP ISZERO PUSH2 0xF52 JUMPI SWAP1 PUSH32 0x8A0196FDA6DA7CE83909702D34F7D32140102EF6663CBDFF735F1842BA83AD80 SWAP3 SWAP2 SLOAD AND SWAP4 SLOAD PUSH1 0x40 MLOAD SWAP1 DUP2 MSTORE LOG3 STOP JUMPDEST PUSH1 0x40 MLOAD PUSH3 0x461BCD PUSH1 0xE5 SHL DUP2 MSTORE PUSH1 0x4 DUP2 ADD DUP5 SWAP1 MSTORE PUSH1 0xD PUSH1 0x24 DUP3 ADD MSTORE PUSH13 0x1499599D5B990819985A5B1959 PUSH1 0x9A SHL PUSH1 0x44 DUP3 ADD MSTORE PUSH1 0x64 SWAP1 REVERT JUMPDEST PUSH2 0xF9E SWAP2 POP DUP5 RETURNDATASIZE DUP7 GT PUSH2 0xA85 JUMPI PUSH2 0xA77 DUP2 DUP4 PUSH2 0x15A4 JUMP JUMPDEST DUP7 PUSH2 0xF1B JUMP JUMPDEST POP PUSH1 0x0 SLOAD DUP4 AND CALLER EQ PUSH2 0xE7A JUMP JUMPDEST CALLVALUE PUSH2 0x124 JUMPI PUSH1 0x20 DUP1 PUSH1 0x3 NOT CALLDATASIZE ADD SLT PUSH2 0x124 JUMPI PUSH1 0x1 PUSH1 0x1 PUSH1 0xA0 SHL SUB PUSH2 0xFD3 PUSH2 0x1537 JUMP JUMPDEST AND PUSH1 0x0 MSTORE PUSH1 0x6 DUP2 MSTORE PUSH1 0x40 PUSH1 0x0 KECCAK256 SWAP1 PUSH1 0x40 MLOAD SWAP1 DUP2 DUP2 DUP5 SLOAD SWAP2 DUP3 DUP2 MSTORE ADD SWAP4 PUSH1 0x0 MSTORE DUP2 PUSH1 0x0 KECCAK256 SWAP2 PUSH1 0x0 SWAP1 JUMPDEST DUP3 DUP3 LT PUSH2 0x1012 JUMPI PUSH2 0x188 DUP6 PUSH2 0x17C DUP2 DUP10 SUB DUP3 PUSH2 0x15A4 JUMP JUMPDEST DUP4 SLOAD DUP7 MSTORE SWAP5 DUP6 ADD SWAP5 PUSH1 0x1 SWAP4 DUP5 ADD SWAP4 SWAP1 SWAP2 ADD SWAP1 PUSH2 0xFFB JUMP JUMPDEST CALLVALUE PUSH2 0x124 JUMPI PUSH1 0x20 CALLDATASIZE PUSH1 0x3 NOT ADD SLT PUSH2 0x124 JUMPI PUSH1 0x4 CALLDATALOAD PUSH1 0x0 SWAP1 DUP2 MSTORE PUSH1 0x5 PUSH1 0x20 MSTORE PUSH1 0x40 SWAP1 KECCAK256 DUP1 SLOAD PUSH1 0x1 DUP3 ADD SLOAD PUSH1 0x1 PUSH1 0x1 PUSH1 0xA0 SHL SUB AND SWAP2 PUSH2 0x1068 PUSH1 0x2 DUP3 ADD PUSH2 0x15C6 JUMP JUMPDEST PUSH2 0x1074 PUSH1 0x3 DUP4 ADD PUSH2 0x15C6 JUMP JUMPDEST PUSH1 0x4 DUP4 ADD SLOAD SWAP3 SWAP1 PUSH2 0x1087 PUSH1 0x5 DUP4 ADD PUSH2 0x15C6 JUMP JUMPDEST SWAP4 PUSH1 0x6 DUP4 ADD SLOAD SWAP5 PUSH1 0x7 DUP5 ADD SLOAD PUSH1 0x8 DUP6 ADD SLOAD PUSH1 0x9 DUP7 ADD SLOAD SWAP2 PUSH1 0xA DUP8 ADD SLOAD PUSH1 0xFF AND SWAP4 PUSH1 0xB DUP9 ADD SLOAD SWAP6 PUSH1 0xC DUP10 ADD SLOAD SWAP8 PUSH1 0xD DUP11 ADD SLOAD SWAP10 PUSH1 0xE ADD SLOAD SWAP11 PUSH1 0x40 MLOAD SWAP15 DUP16 SWAP15 DUP16 SWAP1 DUP2 MSTORE PUSH1 0x20 ADD MSTORE DUP14 PUSH2 0x1E0 SWAP1 DUP2 PUSH1 0x40 DUP3 ADD MSTORE ADD PUSH2 0x10E1 SWAP2 PUSH2 0x14EA JUMP JUMPDEST DUP14 DUP2 SUB PUSH1 0x60 DUP16 ADD MSTORE PUSH2 0x10F2 SWAP2 PUSH2 0x14EA JUMP JUMPDEST SWAP1 PUSH1 0x80 DUP14 ADD MSTORE DUP12 DUP2 SUB PUSH1 0xA0 DUP14 ADD MSTORE PUSH2 0x1109 SWAP2 PUSH2 0x14EA JUMP JUMPDEST SWAP9 PUSH1 0xC0 DUP12 ADD MSTORE PUSH1 0xE0 DUP11 ADD MSTORE PUSH2 0x100 DUP10 ADD MSTORE PUSH2 0x120 DUP9 ADD MSTORE PUSH2 0x140 DUP8 ADD PUSH2 0x112E SWAP2 PUSH2 0x152A JUMP JUMPDEST PUSH2 0x160 DUP7 ADD MSTORE PUSH2 0x180 DUP6 ADD MSTORE PUSH2 0x1A0 DUP5 ADD MSTORE PUSH2 0x1C0 DUP4 ADD MSTORE SUB SWAP1 RETURN JUMPDEST CALLVALUE PUSH2 0x124 JUMPI PUSH1 0x40 CALLDATASIZE PUSH1 0x3 NOT ADD SLT PUSH2 0x124 JUMPI PUSH2 0x1163 PUSH2 0x1537 JUMP JUMPDEST PUSH1 0x0 SLOAD PUSH1 0x1 PUSH1 0x1 PUSH1 0xA0 SHL SUB SWAP2 SWAP1 PUSH1 0x24 CALLDATALOAD SWAP1 PUSH2 0x1181 SWAP1 DUP5 AND CALLER EQ PUSH2 0x1854 JUMP JUMPDEST PUSH1 0x9 SLOAD SWAP2 DUP3 DUP3 GT PUSH2 0x1247 JUMPI PUSH2 0x11D7 SWAP4 PUSH2 0x119C DUP4 PUSH1 0x20 SWAP6 PUSH2 0x1847 JUMP JUMPDEST PUSH1 0x9 SSTORE PUSH1 0xA SLOAD AND SWAP1 PUSH1 0x0 PUSH1 0x40 MLOAD DUP1 SWAP7 DUP2 SWAP6 DUP3 SWAP5 PUSH4 0xA9059CBB PUSH1 0xE0 SHL DUP5 MSTORE PUSH1 0x4 DUP5 ADD PUSH1 0x20 SWAP1 SWAP4 SWAP3 SWAP2 SWAP4 PUSH1 0x40 DUP2 ADD SWAP5 PUSH1 0x1 DUP1 PUSH1 0xA0 SHL SUB AND DUP2 MSTORE ADD MSTORE JUMP JUMPDEST SUB SWAP3 GAS CALL SWAP1 DUP2 ISZERO PUSH2 0x30A JUMPI PUSH1 0x0 SWAP2 PUSH2 0x1229 JUMPI JUMPDEST POP ISZERO PUSH2 0x11F2 JUMPI STOP JUMPDEST PUSH1 0x40 MLOAD PUSH3 0x461BCD PUSH1 0xE5 SHL DUP2 MSTORE PUSH1 0x20 PUSH1 0x4 DUP3 ADD MSTORE PUSH1 0xF PUSH1 0x24 DUP3 ADD MSTORE PUSH15 0x15DA5D1A191C985DC819985A5B1959 PUSH1 0x8A SHL PUSH1 0x44 DUP3 ADD MSTORE PUSH1 0x64 SWAP1 REVERT JUMPDEST PUSH2 0x1241 SWAP2 POP PUSH1 0x20 RETURNDATASIZE DUP2 GT PUSH2 0xA85 JUMPI PUSH2 0xA77 DUP2 DUP4 PUSH2 0x15A4 JUMP JUMPDEST DUP2 PUSH2 0x11EA JUMP JUMPDEST PUSH1 0x40 MLOAD PUSH3 0x461BCD PUSH1 0xE5 SHL DUP2 MSTORE PUSH1 0x20 PUSH1 0x4 DUP3 ADD MSTORE PUSH1 0x15 PUSH1 0x24 DUP3 ADD MSTORE PUSH21 0x4578636565647320686F7573652062616C616E6365 PUSH1 0x58 SHL PUSH1 0x44 DUP3 ADD MSTORE PUSH1 0x64 SWAP1 REVERT JUMPDEST CALLVALUE PUSH2 0x124 JUMPI PUSH1 0x0 CALLDATASIZE PUSH1 0x3 NOT ADD SLT PUSH2 0x124 JUMPI PUSH1 0x20 PUSH1 0x3 SLOAD PUSH1 0x40 MLOAD SWAP1 DUP2 MSTORE RETURN JUMPDEST CALLVALUE PUSH2 0x124 JUMPI PUSH1 0x20 CALLDATASIZE PUSH1 0x3 NOT ADD SLT PUSH2 0x124 JUMPI PUSH2 0x1C0 DUP2 PUSH2 0x12C2 PUSH1 0x0 SWAP4 PUSH2 0x1587 JUMP JUMPDEST DUP3 DUP2 MSTORE DUP3 PUSH1 0x20 DUP3 ADD MSTORE PUSH1 0x60 PUSH1 0x40 DUP3 ADD MSTORE PUSH1 0x60 DUP1 DUP3 ADD MSTORE DUP3 PUSH1 0x80 DUP3 ADD MSTORE PUSH1 0x60 PUSH1 0xA0 DUP3 ADD MSTORE DUP3 PUSH1 0xC0 DUP3 ADD MSTORE DUP3 PUSH1 0xE0 DUP3 ADD MSTORE DUP3 PUSH2 0x100 DUP3 ADD MSTORE DUP3 PUSH2 0x120 DUP3 ADD MSTORE DUP3 PUSH2 0x140 DUP3 ADD MSTORE DUP3 PUSH2 0x160 DUP3 ADD MSTORE DUP3 PUSH2 0x180 DUP3 ADD MSTORE DUP3 PUSH2 0x1A0 DUP3 ADD MSTORE ADD MSTORE PUSH1 0x4 CALLDATALOAD PUSH1 0x0 MSTORE PUSH1 0x5 PUSH1 0x20 MSTORE PUSH1 0x40 PUSH1 0x0 KECCAK256 PUSH1 0x40 MLOAD SWAP1 PUSH2 0x133A DUP3 PUSH2 0x1587 JUMP JUMPDEST DUP1 SLOAD DUP3 MSTORE PUSH1 0x1 DUP2 ADD SLOAD PUSH1 0x1 PUSH1 0x1 PUSH1 0xA0 SHL SUB AND PUSH1 0x20 DUP4 ADD MSTORE PUSH2 0x135D PUSH1 0x2 DUP3 ADD PUSH2 0x15C6 JUMP JUMPDEST PUSH1 0x40 DUP4 ADD MSTORE PUSH2 0x136E PUSH1 0x3 DUP3 ADD PUSH2 0x15C6 JUMP JUMPDEST PUSH1 0x60 DUP4 ADD MSTORE PUSH1 0x4 DUP2 ADD SLOAD PUSH1 0x80 DUP4 ADD MSTORE PUSH2 0x1389 PUSH1 0x5 DUP3 ADD PUSH2 0x15C6 JUMP JUMPDEST PUSH1 0xA0 DUP4 ADD MSTORE PUSH1 0x6 DUP2 ADD SLOAD PUSH1 0xC0 DUP4 ADD MSTORE PUSH1 0x7 DUP2 ADD SLOAD PUSH1 0xE0 DUP4 ADD MSTORE PUSH1 0x8 DUP2 ADD SLOAD PUSH2 0x100 DUP4 ADD MSTORE PUSH1 0x9 DUP2 ADD SLOAD PUSH2 0x120 DUP4 ADD MSTORE PUSH1 0xFF PUSH1 0xA DUP3 ADD SLOAD AND SWAP1 PUSH1 0x4 DUP3 LT ISZERO PUSH2 0x779 JUMPI PUSH1 0xE SWAP2 PUSH2 0x140 DUP5 ADD MSTORE PUSH1 0xB DUP2 ADD SLOAD PUSH2 0x160 DUP5 ADD MSTORE PUSH1 0xC DUP2 ADD SLOAD PUSH2 0x180 DUP5 ADD MSTORE PUSH1 0xD DUP2 ADD SLOAD PUSH2 0x1A0 DUP5 ADD MSTORE ADD SLOAD PUSH2 0x1C0 DUP3 ADD MSTORE PUSH1 0x40 MLOAD DUP1 SWAP2 PUSH1 0x20 DUP3 MSTORE DUP1 MLOAD PUSH1 0x20 DUP4 ADD MSTORE PUSH1 0x1 DUP1 PUSH1 0xA0 SHL SUB PUSH1 0x20 DUP3 ADD MLOAD AND PUSH1 0x40 DUP4 ADD MSTORE PUSH2 0x1C0 PUSH2 0x147A PUSH2 0x143F PUSH1 0x40 DUP5 ADD MLOAD PUSH2 0x1E0 PUSH1 0x60 DUP8 ADD MSTORE PUSH2 0x200 DUP7 ADD SWAP1 PUSH2 0x14EA JUMP JUMPDEST PUSH2 0x145B PUSH1 0x60 DUP6 ADD MLOAD SWAP2 PUSH1 0x1F NOT SWAP3 DUP4 DUP9 DUP4 SUB ADD PUSH1 0x80 DUP10 ADD MSTORE PUSH2 0x14EA JUMP JUMPDEST SWAP1 PUSH1 0x80 DUP6 ADD MLOAD PUSH1 0xA0 DUP8 ADD MSTORE PUSH1 0xA0 DUP6 ADD MLOAD SWAP1 DUP7 DUP4 SUB ADD PUSH1 0xC0 DUP8 ADD MSTORE PUSH2 0x14EA JUMP JUMPDEST SWAP2 PUSH1 0xC0 DUP2 ADD MLOAD PUSH1 0xE0 DUP6 ADD MSTORE PUSH1 0xE0 DUP2 ADD MLOAD PUSH2 0x100 DUP6 ADD MSTORE PUSH2 0x100 DUP2 ADD MLOAD PUSH2 0x120 DUP6 ADD MSTORE PUSH2 0x120 DUP2 ADD MLOAD PUSH2 0x140 DUP6 ADD MSTORE PUSH2 0x14BC PUSH2 0x140 DUP3 ADD MLOAD PUSH2 0x160 DUP7 ADD SWAP1 PUSH2 0x152A JUMP JUMPDEST PUSH2 0x160 DUP2 ADD MLOAD PUSH2 0x180 DUP6 ADD MSTORE PUSH2 0x180 DUP2 ADD MLOAD PUSH2 0x1A0 DUP6 ADD MSTORE PUSH2 0x1A0 DUP2 ADD MLOAD DUP3 DUP6 ADD MSTORE ADD MLOAD PUSH2 0x1E0 DUP4 ADD MSTORE SUB SWAP1 RETURN JUMPDEST SWAP2 SWAP1 DUP3 MLOAD SWAP3 DUP4 DUP3 MSTORE PUSH1 0x0 JUMPDEST DUP5 DUP2 LT PUSH2 0x1516 JUMPI POP POP DUP3 PUSH1 0x0 PUSH1 0x20 DUP1 SWAP5 SWAP6 DUP5 ADD ADD MSTORE PUSH1 0x1F DUP1 NOT SWAP2 ADD AND ADD ADD SWAP1 JUMP JUMPDEST PUSH1 0x20 DUP2 DUP4 ADD DUP2 ADD MLOAD DUP5 DUP4 ADD DUP3 ADD MSTORE ADD PUSH2 0x14F5 JUMP JUMPDEST SWAP1 PUSH1 0x4 DUP3 LT ISZERO PUSH2 0x779 JUMPI MSTORE JUMP JUMPDEST PUSH1 0x4 CALLDATALOAD SWAP1 PUSH1 0x1 PUSH1 0x1 PUSH1 0xA0 SHL SUB DUP3 AND DUP3 SUB PUSH2 0x124 JUMPI JUMP JUMPDEST SWAP1 PUSH1 0x1 DUP3 DUP2 SHR SWAP3 AND DUP1 ISZERO PUSH2 0x157D JUMPI JUMPDEST PUSH1 0x20 DUP4 LT EQ PUSH2 0x1567 JUMPI JUMP JUMPDEST PUSH4 0x4E487B71 PUSH1 0xE0 SHL PUSH1 0x0 MSTORE PUSH1 0x22 PUSH1 0x4 MSTORE PUSH1 0x24 PUSH1 0x0 REVERT JUMPDEST SWAP2 PUSH1 0x7F AND SWAP2 PUSH2 0x155C JUMP JUMPDEST PUSH2 0x1E0 DUP2 ADD SWAP1 DUP2 LT PUSH8 0xFFFFFFFFFFFFFFFF DUP3 GT OR PUSH2 0x85A JUMPI PUSH1 0x40 MSTORE JUMP JUMPDEST SWAP1 PUSH1 0x1F DUP1 NOT SWAP2 ADD AND DUP2 ADD SWAP1 DUP2 LT PUSH8 0xFFFFFFFFFFFFFFFF DUP3 GT OR PUSH2 0x85A JUMPI PUSH1 0x40 MSTORE JUMP JUMPDEST SWAP1 PUSH1 0x40 MLOAD SWAP2 DUP3 PUSH1 0x0 DUP3 SLOAD SWAP3 PUSH2 0x15DA DUP5 PUSH2 0x154D JUMP JUMPDEST SWAP1 DUP2 DUP5 MSTORE PUSH1 0x1 SWAP5 DUP6 DUP2 AND SWAP1 DUP2 PUSH1 0x0 EQ PUSH2 0x1649 JUMPI POP PUSH1 0x1 EQ PUSH2 0x1606 JUMPI JUMPDEST POP POP PUSH2 0x1604 SWAP3 POP SUB DUP4 PUSH2 0x15A4 JUMP JUMPDEST JUMP JUMPDEST SWAP1 SWAP4 SWAP2 POP PUSH1 0x0 MSTORE PUSH1 0x20 SWAP1 DUP2 PUSH1 0x0 KECCAK256 SWAP4 PUSH1 0x0 SWAP2 JUMPDEST DUP2 DUP4 LT PUSH2 0x1631 JUMPI POP POP PUSH2 0x1604 SWAP4 POP DUP3 ADD ADD CODESIZE DUP1 PUSH2 0x15F6 JUMP JUMPDEST DUP6 SLOAD DUP9 DUP5 ADD DUP6 ADD MSTORE SWAP5 DUP6 ADD SWAP5 DUP8 SWAP5 POP SWAP2 DUP4 ADD SWAP2 PUSH2 0x1619 JUMP JUMPDEST SWAP2 POP POP PUSH2 0x1604 SWAP5 POP PUSH1 0x20 SWAP3 POP PUSH1 0xFF NOT AND DUP3 DUP5 ADD MSTORE ISZERO ISZERO PUSH1 0x5 SHL DUP3 ADD ADD CODESIZE DUP1 PUSH2 0x15F6 JUMP JUMPDEST PUSH1 0x20 SWAP1 DUP2 PUSH1 0x40 DUP2 DUP4 ADD SWAP3 DUP3 DUP2 MSTORE DUP6 MLOAD DUP1 SWAP5 MSTORE ADD SWAP4 ADD SWAP2 PUSH1 0x0 JUMPDEST DUP3 DUP2 LT PUSH2 0x1693 JUMPI POP POP POP POP SWAP1 JUMP JUMPDEST DUP4 MLOAD DUP6 MSTORE SWAP4 DUP2 ADD SWAP4 SWAP3 DUP2 ADD SWAP3 PUSH1 0x1 ADD PUSH2 0x1685 JUMP JUMPDEST DUP1 SLOAD DUP3 LT ISZERO PUSH2 0x16BF JUMPI PUSH1 0x0 MSTORE PUSH1 0x20 PUSH1 0x0 KECCAK256 ADD SWAP1 PUSH1 0x0 SWAP1 JUMP JUMPDEST PUSH4 0x4E487B71 PUSH1 0xE0 SHL PUSH1 0x0 MSTORE PUSH1 0x32 PUSH1 0x4 MSTORE PUSH1 0x24 PUSH1 0x0 REVERT JUMPDEST DUP2 PUSH1 0x1F DUP3 ADD SLT ISZERO PUSH2 0x124 JUMPI DUP1 CALLDATALOAD SWAP1 PUSH8 0xFFFFFFFFFFFFFFFF DUP3 GT PUSH2 0x85A JUMPI PUSH1 0x40 MLOAD SWAP3 PUSH2 0x170A PUSH1 0x1F DUP5 ADD PUSH1 0x1F NOT AND PUSH1 0x20 ADD DUP6 PUSH2 0x15A4 JUMP JUMPDEST DUP3 DUP5 MSTORE PUSH1 0x20 DUP4 DUP4 ADD ADD GT PUSH2 0x124 JUMPI DUP2 PUSH1 0x0 SWAP3 PUSH1 0x20 DUP1 SWAP4 ADD DUP4 DUP7 ADD CALLDATACOPY DUP4 ADD ADD MSTORE SWAP1 JUMP JUMPDEST ISZERO PUSH2 0x1733 JUMPI JUMP JUMPDEST PUSH1 0x40 MLOAD PUSH3 0x461BCD PUSH1 0xE5 SHL DUP2 MSTORE PUSH1 0x20 PUSH1 0x4 DUP3 ADD MSTORE PUSH1 0x9 PUSH1 0x24 DUP3 ADD MSTORE PUSH9 0x139BDD081859D95B9D PUSH1 0xBA SHL PUSH1 0x44 DUP3 ADD MSTORE PUSH1 0x64 SWAP1 REVERT JUMPDEST SWAP1 DUP2 PUSH1 0x20 SWAP2 SUB SLT PUSH2 0x124 JUMPI MLOAD DUP1 ISZERO ISZERO DUP2 SUB PUSH2 0x124 JUMPI SWAP1 JUMP JUMPDEST SWAP2 SWAP1 DUP3 ADD DUP1 SWAP3 GT PUSH2 0xA0B JUMPI JUMP JUMPDEST DUP1 SLOAD PUSH9 0x10000000000000000 DUP2 LT ISZERO PUSH2 0x85A JUMPI PUSH2 0x17AB SWAP2 PUSH1 0x1 DUP3 ADD DUP2 SSTORE PUSH2 0x16A7 JUMP JUMPDEST DUP2 SWAP3 SWAP2 SLOAD SWAP1 PUSH1 0x3 SHL SWAP2 DUP3 SHL SWAP2 PUSH1 0x0 NOT SWAP1 SHL NOT AND OR SWAP1 SSTORE JUMP JUMPDEST ISZERO PUSH2 0x17CA JUMPI JUMP JUMPDEST PUSH1 0x40 MLOAD PUSH3 0x461BCD PUSH1 0xE5 SHL DUP2 MSTORE PUSH1 0x20 PUSH1 0x4 DUP3 ADD MSTORE PUSH1 0x9 PUSH1 0x24 DUP3 ADD MSTORE PUSH9 0x139BDD08199BDD5B99 PUSH1 0xBA SHL PUSH1 0x44 DUP3 ADD MSTORE PUSH1 0x64 SWAP1 REVERT JUMPDEST ISZERO PUSH2 0x1802 JUMPI JUMP JUMPDEST PUSH1 0x40 MLOAD PUSH3 0x461BCD PUSH1 0xE5 SHL DUP2 MSTORE PUSH1 0x20 PUSH1 0x4 DUP3 ADD MSTORE PUSH1 0xA PUSH1 0x24 DUP3 ADD MSTORE PUSH10 0x4E6F7420616374697665 PUSH1 0xB0 SHL PUSH1 0x44 DUP3 ADD MSTORE PUSH1 0x64 SWAP1 REVERT JUMPDEST DUP2 DUP2 MUL SWAP3 SWAP2 DUP2 ISZERO SWAP2 DUP5 DIV EQ OR ISZERO PUSH2 0xA0B JUMPI JUMP JUMPDEST SWAP2 SWAP1 DUP3 SUB SWAP2 DUP3 GT PUSH2 0xA0B JUMPI JUMP JUMPDEST ISZERO PUSH2 0x185B JUMPI JUMP JUMPDEST PUSH1 0x40 MLOAD PUSH3 0x461BCD PUSH1 0xE5 SHL DUP2 MSTORE PUSH1 0x20 PUSH1 0x4 DUP3 ADD MSTORE PUSH1 0x9 PUSH1 0x24 DUP3 ADD MSTORE PUSH9 0x2737BA1037BBB732B9 PUSH1 0xB9 SHL PUSH1 0x44 DUP3 ADD MSTORE PUSH1 0x64 SWAP1 REVERT INVALID LOG2 PUSH5 0x6970667358 0x22 SLT KECCAK256 RETURNDATACOPY BLOCKHASH PUSH23 0x4C189DD01862143BF6B71E6CD9ABF931B8238AB6157142 DUP7 0xDE ORIGIN 0xD7 SWAP3 SWAP10 PUSH5 0x736F6C6343 STOP ADDMOD EQ STOP CALLER "},"methodIdentifiers":{"USDC()":"89a30271","agent()":"f5ff5c76","bets(uint256)":"22af00fa","cancelBet(uint256)":"357401f5","conditionBetIds(bytes32,uint256)":"d8638341","contractBalance()":"8b7afe2e","getBet(uint256)":"061e494f","getConditionBets(bytes32)":"e96aa52c","getUserBets(address)":"2d56657d","houseBalance()":"67084eb3","houseFee()":"0ed469b8","nextBetId()":"9aca2792","owner()":"8da5cb5b","payoutMultiplier()":"5c812737","placeBet(address,string,string,uint256,string,uint256,uint256,uint256,uint256,bytes32)":"774181c9","setAgent(address)":"bcf685ed","settleBet(uint256,bool)":"5a645c92","totalVolume()":"5f81a57c","userBetIds(address,uint256)":"5cc9e4dc","withdrawHouse(address,uint256)":"1d459a95"}}}}}