{
  "_format": "hh-sol-artifact-1",
  "contractName": "PredictionAgent",
  "sourceName": "contracts/PredictionAgent.sol",
  "abi": [
    {
      "inputs": [
        {
          "internalType": "address",
          "name": "_agent",
          "type": "address"
        }
      ],
      "stateMutability": "nonpayable",
      "type": "constructor"
    },
    {
      "anonymous": false,
      "inputs": [
        {
          "indexed": true,
          "internalType": "uint256",
          "name": "betId",
          "type": "uint256"
        },
        {
          "indexed": true,
          "internalType": "address",
          "name": "user",
          "type": "address"
        },
        {
          "indexed": false,
          "internalType": "uint256",
          "name": "refundUsdc",
          "type": "uint256"
        }
      ],
      "name": "BetCancelled",
      "type": "event"
    },
    {
      "anonymous": false,
      "inputs": [
        {
          "indexed": true,
          "internalType": "uint256",
          "name": "betId",
          "type": "uint256"
        },
        {
          "indexed": true,
          "internalType": "address",
          "name": "user",
          "type": "address"
        },
        {
          "indexed": false,
          "internalType": "string",
          "name": "asset",
          "type": "string"
        },
        {
          "indexed": false,
          "internalType": "uint256",
          "name": "amountUsdc",
          "type": "uint256"
        },
        {
          "indexed": false,
          "internalType": "bytes32",
          "name": "conditionId",
          "type": "bytes32"
        },
        {
          "indexed": false,
          "internalType": "uint256",
          "name": "queueIndex",
          "type": "uint256"
        },
        {
          "indexed": false,
          "internalType": "uint256",
          "name": "queueTotal",
          "type": "uint256"
        }
      ],
      "name": "BetPlaced",
      "type": "event"
    },
    {
      "anonymous": false,
      "inputs": [
        {
          "indexed": true,
          "internalType": "uint256",
          "name": "betId",
          "type": "uint256"
        },
        {
          "indexed": true,
          "internalType": "address",
          "name": "user",
          "type": "address"
        },
        {
          "indexed": false,
          "internalType": "enum PredictionAgent.BetStatus",
          "name": "result",
          "type": "uint8"
        },
        {
          "indexed": false,
          "internalType": "uint256",
          "name": "payoutUsdc",
          "type": "uint256"
        }
      ],
      "name": "BetSettled",
      "type": "event"
    },
    {
      "inputs": [],
      "name": "USDC",
      "outputs": [
        {
          "internalType": "address",
          "name": "",
          "type": "address"
        }
      ],
      "stateMutability": "view",
      "type": "function"
    },
    {
      "inputs": [],
      "name": "agent",
      "outputs": [
        {
          "internalType": "address",
          "name": "",
          "type": "address"
        }
      ],
      "stateMutability": "view",
      "type": "function"
    },
    {
      "inputs": [
        {
          "internalType": "uint256",
          "name": "",
          "type": "uint256"
        }
      ],
      "name": "bets",
      "outputs": [
        {
          "internalType": "uint256",
          "name": "id",
          "type": "uint256"
        },
        {
          "internalType": "address",
          "name": "user",
          "type": "address"
        },
        {
          "internalType": "string",
          "name": "asset",
          "type": "string"
        },
        {
          "internalType": "string",
          "name": "condition",
          "type": "string"
        },
        {
          "internalType": "uint256",
          "name": "conditionValue",
          "type": "uint256"
        },
        {
          "internalType": "string",
          "name": "outcome",
          "type": "string"
        },
        {
          "internalType": "uint256",
          "name": "timeframeSeconds",
          "type": "uint256"
        },
        {
          "internalType": "uint256",
          "name": "amountUsdc",
          "type": "uint256"
        },
        {
          "internalType": "uint256",
          "name": "createdAt",
          "type": "uint256"
        },
        {
          "internalType": "uint256",
          "name": "expiresAt",
          "type": "uint256"
        },
        {
          "internalType": "enum PredictionAgent.BetStatus",
          "name": "status",
          "type": "uint8"
        },
        {
          "internalType": "uint256",
          "name": "payoutUsdc",
          "type": "uint256"
        },
        {
          "internalType": "uint256",
          "name": "queueIndex",
          "type": "uint256"
        },
        {
          "internalType": "uint256",
          "name": "queueTotal",
          "type": "uint256"
        },
        {
          "internalType": "bytes32",
          "name": "conditionId",
          "type": "bytes32"
        }
      ],
      "stateMutability": "view",
      "type": "function"
    },
    {
      "inputs": [
        {
          "internalType": "uint256",
          "name": "_betId",
          "type": "uint256"
        }
      ],
      "name": "cancelBet",
      "outputs": [],
      "stateMutability": "nonpayable",
      "type": "function"
    },
    {
      "inputs": [
        {
          "internalType": "bytes32",
          "name": "",
          "type": "bytes32"
        },
        {
          "internalType": "uint256",
          "name": "",
          "type": "uint256"
        }
      ],
      "name": "conditionBetIds",
      "outputs": [
        {
          "internalType": "uint256",
          "name": "",
          "type": "uint256"
        }
      ],
      "stateMutability": "view",
      "type": "function"
    },
    {
      "inputs": [],
      "name": "contractBalance",
      "outputs": [
        {
          "internalType": "uint256",
          "name": "",
          "type": "uint256"
        }
      ],
      "stateMutability": "view",
      "type": "function"
    },
    {
      "inputs": [
        {
          "internalType": "uint256",
          "name": "_betId",
          "type": "uint256"
        }
      ],
      "name": "getBet",
      "outputs": [
        {
          "components": [
            {
              "internalType": "uint256",
              "name": "id",
              "type": "uint256"
            },
            {
              "internalType": "address",
              "name": "user",
              "type": "address"
            },
            {
              "internalType": "string",
              "name": "asset",
              "type": "string"
            },
            {
              "internalType": "string",
              "name": "condition",
              "type": "string"
            },
            {
              "internalType": "uint256",
              "name": "conditionValue",
              "type": "uint256"
            },
            {
              "internalType": "string",
              "name": "outcome",
              "type": "string"
            },
            {
              "internalType": "uint256",
              "name": "timeframeSeconds",
              "type": "uint256"
            },
            {
              "internalType": "uint256",
              "name": "amountUsdc",
              "type": "uint256"
            },
            {
              "internalType": "uint256",
              "name": "createdAt",
              "type": "uint256"
            },
            {
              "internalType": "uint256",
              "name": "expiresAt",
              "type": "uint256"
            },
            {
              "internalType": "enum PredictionAgent.BetStatus",
              "name": "status",
              "type": "uint8"
            },
            {
              "internalType": "uint256",
              "name": "payoutUsdc",
              "type": "uint256"
            },
            {
              "internalType": "uint256",
              "name": "queueIndex",
              "type": "uint256"
            },
            {
              "internalType": "uint256",
              "name": "queueTotal",
              "type": "uint256"
            },
            {
              "internalType": "bytes32",
              "name": "conditionId",
              "type": "bytes32"
            }
          ],
          "internalType": "struct PredictionAgent.Bet",
          "name": "",
          "type": "tuple"
        }
      ],
      "stateMutability": "view",
      "type": "function"
    },
    {
      "inputs": [
        {
          "internalType": "bytes32",
          "name": "_conditionId",
          "type": "bytes32"
        }
      ],
      "name": "getConditionBets",
      "outputs": [
        {
          "internalType": "uint256[]",
          "name": "",
          "type": "uint256[]"
        }
      ],
      "stateMutability": "view",
      "type": "function"
    },
    {
      "inputs": [
        {
          "internalType": "address",
          "name": "_user",
          "type": "address"
        }
      ],
      "name": "getUserBets",
      "outputs": [
        {
          "internalType": "uint256[]",
          "name": "",
          "type": "uint256[]"
        }
      ],
      "stateMutability": "view",
      "type": "function"
    },
    {
      "inputs": [],
      "name": "houseBalance",
      "outputs": [
        {
          "internalType": "uint256",
          "name": "",
          "type": "uint256"
        }
      ],
      "stateMutability": "view",
      "type": "function"
    },
    {
      "inputs": [],
      "name": "houseFee",
      "outputs": [
        {
          "internalType": "uint256",
          "name": "",
          "type": "uint256"
        }
      ],
      "stateMutability": "view",
      "type": "function"
    },
    {
      "inputs": [],
      "name": "nextBetId",
      "outputs": [
        {
          "internalType": "uint256",
          "name": "",
          "type": "uint256"
        }
      ],
      "stateMutability": "view",
      "type": "function"
    },
    {
      "inputs": [],
      "name": "owner",
      "outputs": [
        {
          "internalType": "address",
          "name": "",
          "type": "address"
        }
      ],
      "stateMutability": "view",
      "type": "function"
    },
    {
      "inputs": [],
      "name": "payoutMultiplier",
      "outputs": [
        {
          "internalType": "uint256",
          "name": "",
          "type": "uint256"
        }
      ],
      "stateMutability": "view",
      "type": "function"
    },
    {
      "inputs": [
        {
          "internalType": "address",
          "name": "_user",
          "type": "address"
        },
        {
          "internalType": "string",
          "name": "_asset",
          "type": "string"
        },
        {
          "internalType": "string",
          "name": "_condition",
          "type": "string"
        },
        {
          "internalType": "uint256",
          "name": "_conditionValue",
          "type": "uint256"
        },
        {
          "internalType": "string",
          "name": "_outcome",
          "type": "string"
        },
        {
          "internalType": "uint256",
          "name": "_timeframeSeconds",
          "type": "uint256"
        },
        {
          "internalType": "uint256",
          "name": "_amountUsdc",
          "type": "uint256"
        },
        {
          "internalType": "uint256",
          "name": "_queueIndex",
          "type": "uint256"
        },
        {
          "internalType": "uint256",
          "name": "_queueTotal",
          "type": "uint256"
        },
        {
          "internalType": "bytes32",
          "name": "_conditionId",
          "type": "bytes32"
        }
      ],
      "name": "placeBet",
      "outputs": [
        {
          "internalType": "uint256",
          "name": "",
          "type": "uint256"
        }
      ],
      "stateMutability": "nonpayable",
      "type": "function"
    },
    {
      "inputs": [
        {
          "internalType": "address",
          "name": "_agent",
          "type": "address"
        }
      ],
      "name": "setAgent",
      "outputs": [],
      "stateMutability": "nonpayable",
      "type": "function"
    },
    {
      "inputs": [
        {
          "internalType": "uint256",
          "name": "_betId",
          "type": "uint256"
        },
        {
          "internalType": "bool",
          "name": "_won",
          "type": "bool"
        }
      ],
      "name": "settleBet",
      "outputs": [],
      "stateMutability": "nonpayable",
      "type": "function"
    },
    {
      "inputs": [],
      "name": "totalVolume",
      "outputs": [
        {
          "internalType": "uint256",
          "name": "",
          "type": "uint256"
        }
      ],
      "stateMutability": "view",
      "type": "function"
    },
    {
      "inputs": [
        {
          "internalType": "address",
          "name": "",
          "type": "address"
        },
        {
          "internalType": "uint256",
          "name": "",
          "type": "uint256"
        }
      ],
      "name": "userBetIds",
      "outputs": [
        {
          "internalType": "uint256",
          "name": "",
          "type": "uint256"
        }
      ],
      "stateMutability": "view",
      "type": "function"
    },
    {
      "inputs": [
        {
          "internalType": "address",
          "name": "_to",
          "type": "address"
        },
        {
          "internalType": "uint256",
          "name": "_amount",
          "type": "uint256"
        }
      ],
      "name": "withdrawHouse",
      "outputs": [],
      "stateMutability": "nonpayable",
      "type": "function"
    }
  ],
  "bytecode": "0x60803461009857601f61197638819003918201601f19168301916001600160401b0383118484101761009d5780849260209460405283398101031261009857516001600160a01b03811690819003610098576001600255604b60035561073a60045560018060a01b0319601b60991b81600a541617600a553381600054161760005560015416176001556040516118c290816100b48239f35b600080fd5b634e487b7160e01b600052604160045260246000fdfe608080604052600436101561001357600080fd5b60003560e01c908163061e494f146112a2575080630ed469b8146112845780631d459a951461114a57806322af00fa146110295780632d56657d14610fb1578063357401f514610e4d5780635a645c9214610bf05780635c81273714610bd25780635cc9e4dc14610b885780635f81a57c14610b6a57806367084eb314610b4c578063774181c91461033657806389a30271146103165780638b7afe2e146102825780638da5cb5b146102595780639aca27921461023b578063bcf685ed146101ea578063d8638341146101a3578063e96aa52c146101295763f5ff5c76146100fb57600080fd5b34610124576000366003190112610124576001546040516001600160a01b039091168152602090f35b600080fd5b34610124576020806003193601126101245760043560005260078152604060002090604051908181845491828152019360005281600020916000905b82821061018c576101888561017c818903826115a4565b6040519182918261166c565b0390f35b835486529485019460019384019390910190610165565b3461012457604036600319011261012457602435600435600052600760205260406000208054821015610124576020916101dc916116a7565b90546040519160031b1c8152f35b3461012457602036600319011261012457610203611537565b6000546001600160a01b03919061021d9083163314611854565b166bffffffffffffffffffffffff60a01b6001541617600155600080f35b34610124576000366003190112610124576020600254604051908152f35b34610124576000366003190112610124576000546040516001600160a01b039091168152602090f35b3461012457600036600319011261012457600a546040516370a0823160e01b815230600482015290602090829060249082906001600160a01b03165afa801561030a576000906102d8575b602090604051908152f35b506020813d8211610302575b816102f1602093836115a4565b8101031261012457602090516102cd565b3d91506102e4565b6040513d6000823e3d90fd5b3461012457600036600319011261012457604051601b60991b8152602090f35b346101245761014036600319011261012457610350611537565b60243567ffffffffffffffff8111610124576103709036906004016116d5565b9060443567ffffffffffffffff8111610124576103919036906004016116d5565b9060843567ffffffffffffffff8111610124576103b29036906004016116d5565b9160018060a01b036001541633148015610b38575b6103d09061172c565b60c43515610b0157603c60a43510610ad257600160e435101580610ac3575b15610a8c57600a546040516323b872dd60e01b815233600482015230602482015260c435604482015290602090829060649082906000906001600160a01b03165af190811561030a57600091610a5d575b5015610a2157600254926000198414610a0b576001840160025561046660a4354261177c565b906040519261047484611587565b85845260018060a01b03851660208501528660408501526060840152606435608084015260a083015260a43560c083015260c43560e0830152426101008301526101208201526000610140820152600061016082015260e435610180820152610104356101a0820152610124356101c0820152826000526005602052604060002090805182556001820160018060a01b036020830151166bffffffffffffffffffffffff60a01b825416179055604081015180519067ffffffffffffffff821161085a578190610547600286015461154d565b601f81116109b8575b50602090601f831160011461094b57600092610940575b50508160011b916000199060031b1c19161760028301555b606081015180519067ffffffffffffffff821161085a5781906105a5600386015461154d565b601f81116108ed575b50602090601f831160011461087b57600092610870575b50508160011b916000199060031b1c19161760038301555b6080810151600483015560a081015180519067ffffffffffffffff821161085a57819061060d600586015461154d565b601f8111610807575b50602090601f831160011461079a5760009261078f575b50508160011b916000199060031b1c19161760058301555b60c0810151600683015560e081015160078301556101008101516008830155610120810151600983015561014081015160048110156107795760209583600e6101c07fb3e6d1a3eb0d5b102dc62f841ae965034f1229318cb7b93f4ae450f8382e3d019561074195600a8b99019060ff80198354169116179055610160810151600b850155610180810151600c8501556101a0810151600d850155015191015560018060a01b03851660005260068752610703846040600020611789565b610124356000526007875261071c846040600020611789565b61072a60c43560085461177c565b60085560405191829160a0835260a08301906114ea565b60c4358289015261012435604083015260e43560608301526101043560808301526001600160a01b03909516940390a3604051908152f35b634e487b7160e01b600052602160045260246000fd5b01519050878061062d565b600586016000908152602081209350601f198516905b8181106107ef57509084600195949392106107d6575b505050811b016005830155610645565b015160001960f88460031b161c191690558780806107c6565b929360206001819287860151815501950193016107b0565b909150600585016000526020600020601f840160051c810160208510610853575b90849392915b601f830160051c82018110610844575050610616565b6000815585945060010161082e565b5080610828565b634e487b7160e01b600052604160045260246000fd5b0151905087806105c5565b9250600385016000526020600020906000935b601f19841685106108d2576001945083601f198116106108b9575b505050811b0160038301556105dd565b015160001960f88460031b161c191690558780806108a9565b8181015183556020948501946001909301929091019061088e565b909150600385016000526020600020601f840160051c810160208510610939575b90849392915b601f830160051c8201811061092a5750506105ae565b60008155859450600101610914565b508061090e565b015190508780610567565b600286016000908152602081209350601f198516905b8181106109a05750908460019594939210610987575b505050811b01600283015561057f565b015160001960f88460031b161c19169055878080610977565b92936020600181928786015181550195019301610961565b909150600285016000526020600020601f840160051c810160208510610a04575b90849392915b601f830160051c820181106109f5575050610550565b600081558594506001016109df565b50806109d9565b634e487b7160e01b600052601160045260246000fd5b60405162461bcd60e51b81526020600482015260146024820152731554d110c81d1c985b9cd9995c8819985a5b195960621b6044820152606490fd5b610a7f915060203d602011610a85575b610a7781836115a4565b810190611764565b85610440565b503d610a6d565b60405162461bcd60e51b815260206004820152600f60248201526e084c2c840e2eacaeaca40d2dcc8caf608b1b6044820152606490fd5b506101043560e43511156103ef565b60405162461bcd60e51b81526020600482015260076024820152664d696e2036307360c81b6044820152606490fd5b60405162461bcd60e51b815260206004820152600f60248201526e105b5bdd5b9d081c995c5d5a5c9959608a1b6044820152606490fd5b506000546001600160a01b031633146103c7565b34610124576000366003190112610124576020600954604051908152f35b34610124576000366003190112610124576020600854604051908152f35b3461012457604036600319011261012457610ba1611537565b6001600160a01b0316600090815260066020526040902080546024359190821015610124576020916101dc916116a7565b34610124576000366003190112610124576020600454604051908152f35b34610124576040366003190112610124576024356004358115158203610124576001546001600160a01b0390811633148015610e40575b610c309061172c565b81600052602090600582526040600020610c4c815415156117c3565b600a81019485549060ff8216600481101561077957610c6b90156117fb565b60098301544210610e0d5715610db45750610cd06007820154610cb66103e8610cae610ca582610c9d60045487611834565b049485611847565b60035490611834565b048092611847565b96600160ff1982541617905586600b84015560095461177c565b600955600a54600191909101805460405163a9059cbb60e01b81529084166001600160a01b03166004820152602481018790529091849082908516816000816044810103925af190811561030a57600091610d97575b5015610d6257916040917f9d12e8f6cb44ec2aacb1a45887109f5e56b3f6b9209fbc36630a4c59e38cc02f9354169482519160018352820152a3005b60405162461bcd60e51b815260048101849052600d60248201526c14185e5bdd5d0819985a5b1959609a1b6044820152606490fd5b610dae9150843d8611610a8557610a7781836115a4565b86610d26565b604092917f9d12e8f6cb44ec2aacb1a45887109f5e56b3f6b9209fbc36630a4c59e38cc02f9496600260019360ff1916179055610df7600782015460095461177c565b60095501541693600082519160028352820152a3005b60405162461bcd60e51b815260048101869052600b60248201526a139bdd08195e1c1a5c995960aa1b6044820152606490fd5b5060005481163314610c27565b3461012457602080600319360112610124576001546001600160a01b039160043591831633148015610fa4575b610e839061172c565b8160005260058152604060002092610e9d845415156117c3565b600a8401805460ff811690600482101561077957610ebd600392156117fb565b60ff1916179055600a546001850180546007909601805460405163a9059cbb60e01b81529785166001600160a01b031660048901526024880152959091849082908516816000816044810103925af190811561030a57600091610f87575b5015610f5257907f8a0196fda6da7ce83909702d34f7d32140102ef6663cbdff735f1842ba83ad80929154169354604051908152a3005b60405162461bcd60e51b815260048101849052600d60248201526c1499599d5b990819985a5b1959609a1b6044820152606490fd5b610f9e9150843d8611610a8557610a7781836115a4565b86610f1b565b5060005483163314610e7a565b3461012457602080600319360112610124576001600160a01b03610fd3611537565b1660005260068152604060002090604051908181845491828152019360005281600020916000905b828210611012576101888561017c818903826115a4565b835486529485019460019384019390910190610ffb565b34610124576020366003190112610124576004356000908152600560205260409020805460018201546001600160a01b031691611068600282016115c6565b611074600383016115c6565b60048301549290611087600583016115c6565b9360068301549460078401546008850154600986015491600a87015460ff1693600b88015495600c89015497600d8a015499600e01549a6040519e8f9e8f908152602001528d6101e090816040820152016110e1916114ea565b8d810360608f01526110f2916114ea565b9060808d01528b810360a08d0152611109916114ea565b9860c08b015260e08a0152610100890152610120880152610140870161112e9161152a565b6101608601526101808501526101a08401526101c08301520390f35b3461012457604036600319011261012457611163611537565b6000546001600160a01b039190602435906111819084163314611854565b60095491828211611247576111d79361119c83602095611847565b600955600a541690600060405180968195829463a9059cbb60e01b84526004840160209093929193604081019460018060a01b031681520152565b03925af190811561030a57600091611229575b50156111f257005b60405162461bcd60e51b815260206004820152600f60248201526e15da5d1a191c985dc819985a5b1959608a1b6044820152606490fd5b611241915060203d8111610a8557610a7781836115a4565b816111ea565b60405162461bcd60e51b81526020600482015260156024820152744578636565647320686f7573652062616c616e636560581b6044820152606490fd5b34610124576000366003190112610124576020600354604051908152f35b34610124576020366003190112610124576101c0816112c2600093611587565b82815282602082015260606040820152606080820152826080820152606060a08201528260c08201528260e08201528261010082015282610120820152826101408201528261016082015282610180820152826101a08201520152600435600052600560205260406000206040519061133a82611587565b8054825260018101546001600160a01b0316602083015261135d600282016115c6565b604083015261136e600382016115c6565b606083015260048101546080830152611389600582016115c6565b60a0830152600681015460c0830152600781015460e08301526008810154610100830152600981015461012083015260ff600a8201541690600482101561077957600e91610140840152600b810154610160840152600c810154610180840152600d8101546101a084015201546101c08201526040518091602082528051602083015260018060a01b0360208201511660408301526101c061147a61143f60408401516101e060608701526102008601906114ea565b61145b606085015191601f1992838883030160808901526114ea565b90608085015160a087015260a0850151908683030160c08701526114ea565b9160c081015160e085015260e08101516101008501526101008101516101208501526101208101516101408501526114bc61014082015161016086019061152a565b6101608101516101808501526101808101516101a08501526101a08101518285015201516101e08301520390f35b919082519283825260005b848110611516575050826000602080949584010152601f8019910116010190565b6020818301810151848301820152016114f5565b9060048210156107795752565b600435906001600160a01b038216820361012457565b90600182811c9216801561157d575b602083101461156757565b634e487b7160e01b600052602260045260246000fd5b91607f169161155c565b6101e0810190811067ffffffffffffffff82111761085a57604052565b90601f8019910116810190811067ffffffffffffffff82111761085a57604052565b90604051918260008254926115da8461154d565b9081845260019485811690816000146116495750600114611606575b5050611604925003836115a4565b565b9093915060005260209081600020936000915b818310611631575050611604935082010138806115f6565b85548884018501529485019487945091830191611619565b91505061160494506020925060ff191682840152151560051b82010138806115f6565b6020908160408183019282815285518094520193019160005b828110611693575050505090565b835185529381019392810192600101611685565b80548210156116bf5760005260206000200190600090565b634e487b7160e01b600052603260045260246000fd5b81601f820112156101245780359067ffffffffffffffff821161085a576040519261170a601f8401601f1916602001856115a4565b8284526020838301011161012457816000926020809301838601378301015290565b1561173357565b60405162461bcd60e51b8152602060048201526009602482015268139bdd081859d95b9d60ba1b6044820152606490fd5b90816020910312610124575180151581036101245790565b91908201809211610a0b57565b80546801000000000000000081101561085a576117ab916001820181556116a7565b819291549060031b91821b91600019901b1916179055565b156117ca57565b60405162461bcd60e51b8152602060048201526009602482015268139bdd08199bdd5b9960ba1b6044820152606490fd5b1561180257565b60405162461bcd60e51b815260206004820152600a6024820152694e6f742061637469766560b01b6044820152606490fd5b81810292918115918404141715610a0b57565b91908203918211610a0b57565b1561185b57565b60405162461bcd60e51b81526020600482015260096024820152682737ba1037bbb732b960b91b6044820152606490fdfea26469706673582212203e40764c189dd01862143bf6b71e6cd9abf931b8238ab615714286de32d7929964736f6c63430008140033",
  "linkReferences": {},
  "deployedLinkReferences": {}
}